{
  "_format": "hh-sol-artifact-1",
  "contractName": "BondingManager",
  "sourceName": "contracts/bonding/BondingManager.sol",
  "abi": [
    {
      "inputs": [
        {
          "internalType": "address",
          "name": "_controller",
          "type": "address"
        }
      ],
      "stateMutability": "nonpayable",
      "type": "constructor"
    },
    {
      "anonymous": false,
      "inputs": [
        {
          "indexed": true,
          "internalType": "address",
          "name": "newDelegate",
          "type": "address"
        },
        {
          "indexed": true,
          "internalType": "address",
          "name": "oldDelegate",
          "type": "address"
        },
        {
          "indexed": true,
          "internalType": "address",
          "name": "delegator",
          "type": "address"
        },
        {
          "indexed": false,
          "internalType": "uint256",
          "name": "additionalAmount",
          "type": "uint256"
        },
        {
          "indexed": false,
          "internalType": "uint256",
          "name": "bondedAmount",
          "type": "uint256"
        }
      ],
      "name": "Bond",
      "type": "event"
    },
    {
      "anonymous": false,
      "inputs": [
        {
          "indexed": true,
          "internalType": "address",
          "name": "delegate",
          "type": "address"
        },
        {
          "indexed": true,
          "internalType": "address",
          "name": "delegator",
          "type": "address"
        },
        {
          "indexed": false,
          "internalType": "uint256",
          "name": "rewards",
          "type": "uint256"
        },
        {
          "indexed": false,
          "internalType": "uint256",
          "name": "fees",
          "type": "uint256"
        },
        {
          "indexed": false,
          "internalType": "uint256",
          "name": "startRound",
          "type": "uint256"
        },
        {
          "indexed": false,
          "internalType": "uint256",
          "name": "endRound",
          "type": "uint256"
        }
      ],
      "name": "EarningsClaimed",
      "type": "event"
    },
    {
      "anonymous": false,
      "inputs": [
        {
          "indexed": false,
          "internalType": "string",
          "name": "param",
          "type": "string"
        }
      ],
      "name": "ParameterUpdate",
      "type": "event"
    },
    {
      "anonymous": false,
      "inputs": [
        {
          "indexed": true,
          "internalType": "address",
          "name": "delegate",
          "type": "address"
        },
        {
          "indexed": true,
          "internalType": "address",
          "name": "delegator",
          "type": "address"
        },
        {
          "indexed": false,
          "internalType": "uint256",
          "name": "unbondingLockId",
          "type": "uint256"
        },
        {
          "indexed": false,
          "internalType": "uint256",
          "name": "amount",
          "type": "uint256"
        }
      ],
      "name": "Rebond",
      "type": "event"
    },
    {
      "anonymous": false,
      "inputs": [
        {
          "indexed": true,
          "internalType": "address",
          "name": "transcoder",
          "type": "address"
        },
        {
          "indexed": false,
          "internalType": "uint256",
          "name": "amount",
          "type": "uint256"
        }
      ],
      "name": "Reward",
      "type": "event"
    },
    {
      "anonymous": false,
      "inputs": [
        {
          "indexed": false,
          "internalType": "address",
          "name": "controller",
          "type": "address"
        }
      ],
      "name": "SetController",
      "type": "event"
    },
    {
      "anonymous": false,
      "inputs": [
        {
          "indexed": true,
          "internalType": "address",
          "name": "transcoder",
          "type": "address"
        },
        {
          "indexed": false,
          "internalType": "uint256",
          "name": "activationRound",
          "type": "uint256"
        }
      ],
      "name": "TranscoderActivated",
      "type": "event"
    },
    {
      "anonymous": false,
      "inputs": [
        {
          "indexed": true,
          "internalType": "address",
          "name": "transcoder",
          "type": "address"
        },
        {
          "indexed": false,
          "internalType": "uint256",
          "name": "deactivationRound",
          "type": "uint256"
        }
      ],
      "name": "TranscoderDeactivated",
      "type": "event"
    },
    {
      "anonymous": false,
      "inputs": [
        {
          "indexed": true,
          "internalType": "address",
          "name": "transcoder",
          "type": "address"
        },
        {
          "indexed": false,
          "internalType": "address",
          "name": "finder",
          "type": "address"
        },
        {
          "indexed": false,
          "internalType": "uint256",
          "name": "penalty",
          "type": "uint256"
        },
        {
          "indexed": false,
          "internalType": "uint256",
          "name": "finderReward",
          "type": "uint256"
        }
      ],
      "name": "TranscoderSlashed",
      "type": "event"
    },
    {
      "anonymous": false,
      "inputs": [
        {
          "indexed": true,
          "internalType": "address",
          "name": "transcoder",
          "type": "address"
        },
        {
          "indexed": false,
          "internalType": "uint256",
          "name": "rewardCut",
          "type": "uint256"
        },
        {
          "indexed": false,
          "internalType": "uint256",
          "name": "feeShare",
          "type": "uint256"
        }
      ],
      "name": "TranscoderUpdate",
      "type": "event"
    },
    {
      "anonymous": false,
      "inputs": [
        {
          "indexed": true,
          "internalType": "address",
          "name": "oldDelegator",
          "type": "address"
        },
        {
          "indexed": true,
          "internalType": "address",
          "name": "newDelegator",
          "type": "address"
        },
        {
          "indexed": false,
          "internalType": "uint256",
          "name": "oldUnbondingLockId",
          "type": "uint256"
        },
        {
          "indexed": false,
          "internalType": "uint256",
          "name": "newUnbondingLockId",
          "type": "uint256"
        },
        {
          "indexed": false,
          "internalType": "uint256",
          "name": "amount",
          "type": "uint256"
        }
      ],
      "name": "TransferBond",
      "type": "event"
    },
    {
      "anonymous": false,
      "inputs": [
        {
          "indexed": true,
          "internalType": "address",
          "name": "transcoder",
          "type": "address"
        },
        {
          "indexed": false,
          "internalType": "address",
          "name": "treasury",
          "type": "address"
        },
        {
          "indexed": false,
          "internalType": "uint256",
          "name": "amount",
          "type": "uint256"
        }
      ],
      "name": "TreasuryReward",
      "type": "event"
    },
    {
      "anonymous": false,
      "inputs": [
        {
          "indexed": true,
          "internalType": "address",
          "name": "delegate",
          "type": "address"
        },
        {
          "indexed": true,
          "internalType": "address",
          "name": "delegator",
          "type": "address"
        },
        {
          "indexed": false,
          "internalType": "uint256",
          "name": "unbondingLockId",
          "type": "uint256"
        },
        {
          "indexed": false,
          "internalType": "uint256",
          "name": "amount",
          "type": "uint256"
        },
        {
          "indexed": false,
          "internalType": "uint256",
          "name": "withdrawRound",
          "type": "uint256"
        }
      ],
      "name": "Unbond",
      "type": "event"
    },
    {
      "anonymous": false,
      "inputs": [
        {
          "indexed": true,
          "internalType": "address",
          "name": "delegator",
          "type": "address"
        },
        {
          "indexed": false,
          "internalType": "address",
          "name": "recipient",
          "type": "address"
        },
        {
          "indexed": false,
          "internalType": "uint256",
          "name": "amount",
          "type": "uint256"
        }
      ],
      "name": "WithdrawFees",
      "type": "event"
    },
    {
      "anonymous": false,
      "inputs": [
        {
          "indexed": true,
          "internalType": "address",
          "name": "delegator",
          "type": "address"
        },
        {
          "indexed": false,
          "internalType": "uint256",
          "name": "unbondingLockId",
          "type": "uint256"
        },
        {
          "indexed": false,
          "internalType": "uint256",
          "name": "amount",
          "type": "uint256"
        },
        {
          "indexed": false,
          "internalType": "uint256",
          "name": "withdrawRound",
          "type": "uint256"
        }
      ],
      "name": "WithdrawStake",
      "type": "event"
    },
    {
      "inputs": [
        {
          "internalType": "uint256",
          "name": "_amount",
          "type": "uint256"
        },
        {
          "internalType": "address",
          "name": "_to",
          "type": "address"
        }
      ],
      "name": "bond",
      "outputs": [],
      "stateMutability": "nonpayable",
      "type": "function"
    },
    {
      "inputs": [
        {
          "internalType": "uint256",
          "name": "_amount",
          "type": "uint256"
        },
        {
          "internalType": "address",
          "name": "_owner",
          "type": "address"
        },
        {
          "internalType": "address",
          "name": "_to",
          "type": "address"
        },
        {
          "internalType": "address",
          "name": "_oldDelegateNewPosPrev",
          "type": "address"
        },
        {
          "internalType": "address",
          "name": "_oldDelegateNewPosNext",
          "type": "address"
        },
        {
          "internalType": "address",
          "name": "_currDelegateNewPosPrev",
          "type": "address"
        },
        {
          "internalType": "address",
          "name": "_currDelegateNewPosNext",
          "type": "address"
        }
      ],
      "name": "bondForWithHint",
      "outputs": [],
      "stateMutability": "nonpayable",
      "type": "function"
    },
    {
      "inputs": [
        {
          "internalType": "uint256",
          "name": "_amount",
          "type": "uint256"
        },
        {
          "internalType": "address",
          "name": "_to",
          "type": "address"
        },
        {
          "internalType": "address",
          "name": "_oldDelegateNewPosPrev",
          "type": "address"
        },
        {
          "internalType": "address",
          "name": "_oldDelegateNewPosNext",
          "type": "address"
        },
        {
          "internalType": "address",
          "name": "_currDelegateNewPosPrev",
          "type": "address"
        },
        {
          "internalType": "address",
          "name": "_currDelegateNewPosNext",
          "type": "address"
        }
      ],
      "name": "bondWithHint",
      "outputs": [],
      "stateMutability": "nonpayable",
      "type": "function"
    },
    {
      "inputs": [
        {
          "internalType": "address",
          "name": "_account",
          "type": "address"
        }
      ],
      "name": "checkpointBondingState",
      "outputs": [],
      "stateMutability": "nonpayable",
      "type": "function"
    },
    {
      "inputs": [
        {
          "internalType": "uint256",
          "name": "_endRound",
          "type": "uint256"
        }
      ],
      "name": "claimEarnings",
      "outputs": [],
      "stateMutability": "nonpayable",
      "type": "function"
    },
    {
      "inputs": [],
      "name": "controller",
      "outputs": [
        {
          "internalType": "contract IController",
          "name": "",
          "type": "address"
        }
      ],
      "stateMutability": "view",
      "type": "function"
    },
    {
      "inputs": [],
      "name": "currentRoundTotalActiveStake",
      "outputs": [
        {
          "internalType": "uint256",
          "name": "",
          "type": "uint256"
        }
      ],
      "stateMutability": "view",
      "type": "function"
    },
    {
      "inputs": [
        {
          "internalType": "address",
          "name": "_delegator",
          "type": "address"
        }
      ],
      "name": "delegatorStatus",
      "outputs": [
        {
          "internalType": "enum BondingManager.DelegatorStatus",
          "name": "",
          "type": "uint8"
        }
      ],
      "stateMutability": "view",
      "type": "function"
    },
    {
      "inputs": [
        {
          "internalType": "address",
          "name": "_delegator",
          "type": "address"
        }
      ],
      "name": "getDelegator",
      "outputs": [
        {
          "internalType": "uint256",
          "name": "bondedAmount",
          "type": "uint256"
        },
        {
          "internalType": "uint256",
          "name": "fees",
          "type": "uint256"
        },
        {
          "internalType": "address",
          "name": "delegateAddress",
          "type": "address"
        },
        {
          "internalType": "uint256",
          "name": "delegatedAmount",
          "type": "uint256"
        },
        {
          "internalType": "uint256",
          "name": "startRound",
          "type": "uint256"
        },
        {
          "internalType": "uint256",
          "name": "lastClaimRound",
          "type": "uint256"
        },
        {
          "internalType": "uint256",
          "name": "nextUnbondingLockId",
          "type": "uint256"
        }
      ],
      "stateMutability": "view",
      "type": "function"
    },
    {
      "inputs": [
        {
          "internalType": "address",
          "name": "_delegator",
          "type": "address"
        },
        {
          "internalType": "uint256",
          "name": "_unbondingLockId",
          "type": "uint256"
        }
      ],
      "name": "getDelegatorUnbondingLock",
      "outputs": [
        {
          "internalType": "uint256",
          "name": "amount",
          "type": "uint256"
        },
        {
          "internalType": "uint256",
          "name": "withdrawRound",
          "type": "uint256"
        }
      ],
      "stateMutability": "view",
      "type": "function"
    },
    {
      "inputs": [],
      "name": "getFirstTranscoderInPool",
      "outputs": [
        {
          "internalType": "address",
          "name": "",
          "type": "address"
        }
      ],
      "stateMutability": "view",
      "type": "function"
    },
    {
      "inputs": [
        {
          "internalType": "address",
          "name": "_transcoder",
          "type": "address"
        }
      ],
      "name": "getNextTranscoderInPool",
      "outputs": [
        {
          "internalType": "address",
          "name": "",
          "type": "address"
        }
      ],
      "stateMutability": "view",
      "type": "function"
    },
    {
      "inputs": [],
      "name": "getTotalBonded",
      "outputs": [
        {
          "internalType": "uint256",
          "name": "",
          "type": "uint256"
        }
      ],
      "stateMutability": "view",
      "type": "function"
    },
    {
      "inputs": [
        {
          "internalType": "address",
          "name": "_transcoder",
          "type": "address"
        }
      ],
      "name": "getTranscoder",
      "outputs": [
        {
          "internalType": "uint256",
          "name": "lastRewardRound",
          "type": "uint256"
        },
        {
          "internalType": "uint256",
          "name": "rewardCut",
          "type": "uint256"
        },
        {
          "internalType": "uint256",
          "name": "feeShare",
          "type": "uint256"
        },
        {
          "internalType": "uint256",
          "name": "lastActiveStakeUpdateRound",
          "type": "uint256"
        },
        {
          "internalType": "uint256",
          "name": "activationRound",
          "type": "uint256"
        },
        {
          "internalType": "uint256",
          "name": "deactivationRound",
          "type": "uint256"
        },
        {
          "internalType": "uint256",
          "name": "activeCumulativeRewards",
          "type": "uint256"
        },
        {
          "internalType": "uint256",
          "name": "cumulativeRewards",
          "type": "uint256"
        },
        {
          "internalType": "uint256",
          "name": "cumulativeFees",
          "type": "uint256"
        },
        {
          "internalType": "uint256",
          "name": "lastFeeRound",
          "type": "uint256"
        }
      ],
      "stateMutability": "view",
      "type": "function"
    },
    {
      "inputs": [
        {
          "internalType": "address",
          "name": "_transcoder",
          "type": "address"
        },
        {
          "internalType": "uint256",
          "name": "_round",
          "type": "uint256"
        }
      ],
      "name": "getTranscoderEarningsPoolForRound",
      "outputs": [
        {
          "internalType": "uint256",
          "name": "totalStake",
          "type": "uint256"
        },
        {
          "internalType": "uint256",
          "name": "transcoderRewardCut",
          "type": "uint256"
        },
        {
          "internalType": "uint256",
          "name": "transcoderFeeShare",
          "type": "uint256"
        },
        {
          "internalType": "uint256",
          "name": "cumulativeRewardFactor",
          "type": "uint256"
        },
        {
          "internalType": "uint256",
          "name": "cumulativeFeeFactor",
          "type": "uint256"
        }
      ],
      "stateMutability": "view",
      "type": "function"
    },
    {
      "inputs": [],
      "name": "getTranscoderPoolMaxSize",
      "outputs": [
        {
          "internalType": "uint256",
          "name": "",
          "type": "uint256"
        }
      ],
      "stateMutability": "view",
      "type": "function"
    },
    {
      "inputs": [],
      "name": "getTranscoderPoolSize",
      "outputs": [
        {
          "internalType": "uint256",
          "name": "",
          "type": "uint256"
        }
      ],
      "stateMutability": "view",
      "type": "function"
    },
    {
      "inputs": [
        {
          "internalType": "address",
          "name": "_transcoder",
          "type": "address"
        }
      ],
      "name": "isActiveTranscoder",
      "outputs": [
        {
          "internalType": "bool",
          "name": "",
          "type": "bool"
        }
      ],
      "stateMutability": "view",
      "type": "function"
    },
    {
      "inputs": [
        {
          "internalType": "address",
          "name": "_transcoder",
          "type": "address"
        }
      ],
      "name": "isRegisteredTranscoder",
      "outputs": [
        {
          "internalType": "bool",
          "name": "",
          "type": "bool"
        }
      ],
      "stateMutability": "view",
      "type": "function"
    },
    {
      "inputs": [
        {
          "internalType": "address",
          "name": "_delegator",
          "type": "address"
        },
        {
          "internalType": "uint256",
          "name": "_unbondingLockId",
          "type": "uint256"
        }
      ],
      "name": "isValidUnbondingLock",
      "outputs": [
        {
          "internalType": "bool",
          "name": "",
          "type": "bool"
        }
      ],
      "stateMutability": "view",
      "type": "function"
    },
    {
      "inputs": [],
      "name": "nextRoundTotalActiveStake",
      "outputs": [
        {
          "internalType": "uint256",
          "name": "",
          "type": "uint256"
        }
      ],
      "stateMutability": "view",
      "type": "function"
    },
    {
      "inputs": [],
      "name": "nextRoundTreasuryRewardCutRate",
      "outputs": [
        {
          "internalType": "uint256",
          "name": "",
          "type": "uint256"
        }
      ],
      "stateMutability": "view",
      "type": "function"
    },
    {
      "inputs": [
        {
          "internalType": "address",
          "name": "_delegator",
          "type": "address"
        },
        {
          "internalType": "uint256",
          "name": "_endRound",
          "type": "uint256"
        }
      ],
      "name": "pendingFees",
      "outputs": [
        {
          "internalType": "uint256",
          "name": "",
          "type": "uint256"
        }
      ],
      "stateMutability": "view",
      "type": "function"
    },
    {
      "inputs": [
        {
          "internalType": "address",
          "name": "_delegator",
          "type": "address"
        },
        {
          "internalType": "uint256",
          "name": "_endRound",
          "type": "uint256"
        }
      ],
      "name": "pendingStake",
      "outputs": [
        {
          "internalType": "uint256",
          "name": "",
          "type": "uint256"
        }
      ],
      "stateMutability": "view",
      "type": "function"
    },
    {
      "inputs": [
        {
          "internalType": "uint256",
          "name": "_unbondingLockId",
          "type": "uint256"
        }
      ],
      "name": "rebond",
      "outputs": [],
      "stateMutability": "nonpayable",
      "type": "function"
    },
    {
      "inputs": [
        {
          "internalType": "address",
          "name": "_to",
          "type": "address"
        },
        {
          "internalType": "uint256",
          "name": "_unbondingLockId",
          "type": "uint256"
        }
      ],
      "name": "rebondFromUnbonded",
      "outputs": [],
      "stateMutability": "nonpayable",
      "type": "function"
    },
    {
      "inputs": [
        {
          "internalType": "address",
          "name": "_to",
          "type": "address"
        },
        {
          "internalType": "uint256",
          "name": "_unbondingLockId",
          "type": "uint256"
        },
        {
          "internalType": "address",
          "name": "_newPosPrev",
          "type": "address"
        },
        {
          "internalType": "address",
          "name": "_newPosNext",
          "type": "address"
        }
      ],
      "name": "rebondFromUnbondedWithHint",
      "outputs": [],
      "stateMutability": "nonpayable",
      "type": "function"
    },
    {
      "inputs": [
        {
          "internalType": "uint256",
          "name": "_unbondingLockId",
          "type": "uint256"
        },
        {
          "internalType": "address",
          "name": "_newPosPrev",
          "type": "address"
        },
        {
          "internalType": "address",
          "name": "_newPosNext",
          "type": "address"
        }
      ],
      "name": "rebondWithHint",
      "outputs": [],
      "stateMutability": "nonpayable",
      "type": "function"
    },
    {
      "inputs": [],
      "name": "reward",
      "outputs": [],
      "stateMutability": "nonpayable",
      "type": "function"
    },
    {
      "inputs": [
        {
          "internalType": "address",
          "name": "_newPosPrev",
          "type": "address"
        },
        {
          "internalType": "address",
          "name": "_newPosNext",
          "type": "address"
        }
      ],
      "name": "rewardWithHint",
      "outputs": [],
      "stateMutability": "nonpayable",
      "type": "function"
    },
    {
      "inputs": [
        {
          "internalType": "address",
          "name": "_controller",
          "type": "address"
        }
      ],
      "name": "setController",
      "outputs": [],
      "stateMutability": "nonpayable",
      "type": "function"
    },
    {
      "inputs": [],
      "name": "setCurrentRoundTotalActiveStake",
      "outputs": [],
      "stateMutability": "nonpayable",
      "type": "function"
    },
    {
      "inputs": [
        {
          "internalType": "uint256",
          "name": "_numActiveTranscoders",
          "type": "uint256"
        }
      ],
      "name": "setNumActiveTranscoders",
      "outputs": [],
      "stateMutability": "nonpayable",
      "type": "function"
    },
    {
      "inputs": [
        {
          "internalType": "uint256",
          "name": "_ceiling",
          "type": "uint256"
        }
      ],
      "name": "setTreasuryBalanceCeiling",
      "outputs": [],
      "stateMutability": "nonpayable",
      "type": "function"
    },
    {
      "inputs": [
        {
          "internalType": "uint256",
          "name": "_cutRate",
          "type": "uint256"
        }
      ],
      "name": "setTreasuryRewardCutRate",
      "outputs": [],
      "stateMutability": "nonpayable",
      "type": "function"
    },
    {
      "inputs": [
        {
          "internalType": "uint64",
          "name": "_unbondingPeriod",
          "type": "uint64"
        }
      ],
      "name": "setUnbondingPeriod",
      "outputs": [],
      "stateMutability": "nonpayable",
      "type": "function"
    },
    {
      "inputs": [
        {
          "internalType": "address",
          "name": "_transcoder",
          "type": "address"
        },
        {
          "internalType": "address",
          "name": "_finder",
          "type": "address"
        },
        {
          "internalType": "uint256",
          "name": "_slashAmount",
          "type": "uint256"
        },
        {
          "internalType": "uint256",
          "name": "_finderFee",
          "type": "uint256"
        }
      ],
      "name": "slashTranscoder",
      "outputs": [],
      "stateMutability": "nonpayable",
      "type": "function"
    },
    {
      "inputs": [],
      "name": "targetContractId",
      "outputs": [
        {
          "internalType": "bytes32",
          "name": "",
          "type": "bytes32"
        }
      ],
      "stateMutability": "view",
      "type": "function"
    },
    {
      "inputs": [
        {
          "internalType": "uint256",
          "name": "_rewardCut",
          "type": "uint256"
        },
        {
          "internalType": "uint256",
          "name": "_feeShare",
          "type": "uint256"
        }
      ],
      "name": "transcoder",
      "outputs": [],
      "stateMutability": "nonpayable",
      "type": "function"
    },
    {
      "inputs": [
        {
          "internalType": "address",
          "name": "_transcoder",
          "type": "address"
        }
      ],
      "name": "transcoderStatus",
      "outputs": [
        {
          "internalType": "enum BondingManager.TranscoderStatus",
          "name": "",
          "type": "uint8"
        }
      ],
      "stateMutability": "view",
      "type": "function"
    },
    {
      "inputs": [
        {
          "internalType": "address",
          "name": "_transcoder",
          "type": "address"
        }
      ],
      "name": "transcoderTotalStake",
      "outputs": [
        {
          "internalType": "uint256",
          "name": "",
          "type": "uint256"
        }
      ],
      "stateMutability": "view",
      "type": "function"
    },
    {
      "inputs": [
        {
          "internalType": "uint256",
          "name": "_rewardCut",
          "type": "uint256"
        },
        {
          "internalType": "uint256",
          "name": "_feeShare",
          "type": "uint256"
        },
        {
          "internalType": "address",
          "name": "_newPosPrev",
          "type": "address"
        },
        {
          "internalType": "address",
          "name": "_newPosNext",
          "type": "address"
        }
      ],
      "name": "transcoderWithHint",
      "outputs": [],
      "stateMutability": "nonpayable",
      "type": "function"
    },
    {
      "inputs": [
        {
          "internalType": "address",
          "name": "_delegator",
          "type": "address"
        },
        {
          "internalType": "uint256",
          "name": "_amount",
          "type": "uint256"
        },
        {
          "internalType": "address",
          "name": "_oldDelegateNewPosPrev",
          "type": "address"
        },
        {
          "internalType": "address",
          "name": "_oldDelegateNewPosNext",
          "type": "address"
        },
        {
          "internalType": "address",
          "name": "_newDelegateNewPosPrev",
          "type": "address"
        },
        {
          "internalType": "address",
          "name": "_newDelegateNewPosNext",
          "type": "address"
        }
      ],
      "name": "transferBond",
      "outputs": [],
      "stateMutability": "nonpayable",
      "type": "function"
    },
    {
      "inputs": [],
      "name": "treasuryBalanceCeiling",
      "outputs": [
        {
          "internalType": "uint256",
          "name": "",
          "type": "uint256"
        }
      ],
      "stateMutability": "view",
      "type": "function"
    },
    {
      "inputs": [],
      "name": "treasuryRewardCutRate",
      "outputs": [
        {
          "internalType": "uint256",
          "name": "",
          "type": "uint256"
        }
      ],
      "stateMutability": "view",
      "type": "function"
    },
    {
      "inputs": [
        {
          "internalType": "uint256",
          "name": "_amount",
          "type": "uint256"
        }
      ],
      "name": "unbond",
      "outputs": [],
      "stateMutability": "nonpayable",
      "type": "function"
    },
    {
      "inputs": [
        {
          "internalType": "uint256",
          "name": "_amount",
          "type": "uint256"
        },
        {
          "internalType": "address",
          "name": "_newPosPrev",
          "type": "address"
        },
        {
          "internalType": "address",
          "name": "_newPosNext",
          "type": "address"
        }
      ],
      "name": "unbondWithHint",
      "outputs": [],
      "stateMutability": "nonpayable",
      "type": "function"
    },
    {
      "inputs": [],
      "name": "unbondingPeriod",
      "outputs": [
        {
          "internalType": "uint64",
          "name": "",
          "type": "uint64"
        }
      ],
      "stateMutability": "view",
      "type": "function"
    },
    {
      "inputs": [
        {
          "internalType": "address",
          "name": "_transcoder",
          "type": "address"
        },
        {
          "internalType": "uint256",
          "name": "_fees",
          "type": "uint256"
        },
        {
          "internalType": "uint256",
          "name": "_round",
          "type": "uint256"
        }
      ],
      "name": "updateTranscoderWithFees",
      "outputs": [],
      "stateMutability": "nonpayable",
      "type": "function"
    },
    {
      "inputs": [
        {
          "internalType": "address payable",
          "name": "_recipient",
          "type": "address"
        },
        {
          "internalType": "uint256",
          "name": "_amount",
          "type": "uint256"
        }
      ],
      "name": "withdrawFees",
      "outputs": [],
      "stateMutability": "nonpayable",
      "type": "function"
    },
    {
      "inputs": [
        {
          "internalType": "uint256",
          "name": "_unbondingLockId",
          "type": "uint256"
        }
      ],
      "name": "withdrawStake",
      "outputs": [],
      "stateMutability": "nonpayable",
      "type": "function"
    }
  ],
  "bytecode": "0x60806040523480156200001157600080fd5b50604051620054b5380380620054b583398101604081905262000034916200005a565b600080546001600160a01b0319166001600160a01b03929092169190911790556200008c565b6000602082840312156200006d57600080fd5b81516001600160a01b03811681146200008557600080fd5b9392505050565b615419806200009c6000396000f3fe608060405234801561001057600080fd5b50600436106102f15760003560e01c80635dce99481161019d5780639d0b2c7a116100e9578063cf33a0d5116100a2578063ee4e804a1161007c578063ee4e804a1461083d578063f10d1de114610850578063f595f1cc14610863578063f77c47911461087657600080fd5b8063cf33a0d514610804578063d52bd62b14610817578063eaffb3f91461082a57600080fd5b80639d0b2c7a146107115780639ef9df9414610724578063a576623114610737578063a64ad59514610740578063ad3b1b47146107de578063b78d27dc146107f157600080fd5b80637fc4606f1161015657806388a6c7491161013057806388a6c749146106c35780638b2f1652146106cb57806392eefe9b146106eb5780639500ed9b146106fe57600080fd5b80637fc4606f1461069457806381871056146106a757806384a16bbc146106ba57600080fd5b80635dce994814610574578063673a456b1461062657806368ba170c146106395780636bd9add41461064c5780636cf6d6751461065f578063713f22161461068c57600080fd5b80632a4e0d551161025c5780634196ee751161021557806351720b41116101ef57806351720b4114610552578063558f8f441461055b5780635a2a75a9146105645780635c50c3561461056c57600080fd5b80634196ee751461052d57806343d3461a14610536578063465501d31461054957600080fd5b80632a4e0d55146104745780633550aa101461048a5780633a080e931461049d5780633aeb512c146104b057806340e6f271146104c3578063412f83b6146104d657600080fd5b806322bf9d7c116102ae57806322bf9d7c14610381578063235c96031461039457806324454fc4146103bf57806324b1babf1461043b57806325d5971f1461044e57806327de9e321461046157600080fd5b80630584a373146102f6578063062e98b81461030b578063088023741461031e5780630fd02fc1146103465780631544fc6714610359578063228cb73314610379575b600080fd5b610309610304366004614ebc565b610889565b005b610309610319366004614f0f565b6109dc565b61033161032c366004614f88565b610cb1565b60405190151581526020015b60405180910390f35b610331610354366004614fa5565b610d63565b61036c610367366004614f88565b610d94565b60405161033d9190614fe7565b610309610e50565b61030961038f366004615001565b610e5d565b6103a76103a2366004614f88565b61126c565b6040516001600160a01b03909116815260200161033d565b6104136103cd366004614fa5565b6001600160a01b03909116600090815260046020818152604080842094845260039485019091529091208054600182015460028301549483015492909301549094929392565b604080519586526020860194909452928401919091526060830152608082015260a00161033d565b610309610449366004615047565b611307565b61030961045c366004615047565b611353565b61030961046f366004615047565b61159d565b61047c6115ac565b60405190815260200161033d565b610309610498366004615060565b611638565b6103096104ab366004614fa5565b611a6c565b6103096104be36600461508f565b611a79565b6103096104d1366004615047565b611d9d565b6105186104e4366004614fa5565b6001600160a01b03919091166000908152600360209081526040808320938352600790930190522080546001909101549091565b6040805192835260208301919091520161033d565b61047c60055481565b6103096105443660046150c4565b611dfc565b61047c60065481565b61047c60015481565b61047c600c5481565b61047c611e09565b60055461047c565b6105dc610582366004614f88565b6001600160a01b031660009081526004602081905260409091208054600182015460028301549383015460058401546006850154600786015460088701546009880154600a90980154969995989794969395929491939092565b604080519a8b5260208b0199909952978901969096526060880194909452608087019290925260a086015260c085015260e08401526101008301526101208201526101400161033d565b610309610634366004615047565b611e44565b610331610647366004614f88565b611efa565b61030961065a3660046150e6565b611f32565b6002546106739067ffffffffffffffff1681565b60405167ffffffffffffffff909116815260200161033d565b610309611f41565b6103096106a2366004615121565b612098565b6103096106b5366004615163565b612120565b61047c600e5481565b6103a76125a1565b6106de6106d9366004614f88565b612627565b60405161033d919061519c565b6103096106f9366004614f88565b612647565b61030961070c366004615121565b61269d565b61047c61071f366004614fa5565b612a60565b61047c610732366004614f88565b612af3565b61047c600d5481565b61079b61074e366004614f88565b6001600160a01b0390811660009081526003602081905260409091208054600182015460028301549383015460048401546005850154600690950154939792969590951694909390929091565b6040805197885260208801969096526001600160a01b03909416948601949094526060850191909152608084015260a083019190915260c082015260e00161033d565b6103096107ec366004614fa5565b612b12565b6103096107ff3660046151b0565b612cd6565b610309610812366004615047565b612ce6565b610309610825366004614f88565b612cf7565b610309610838366004615047565b612d25565b61030961084b3660046151d5565b612d31565b61030961085e366004615262565b6132e2565b61047c610871366004614fa5565b613349565b6000546103a7906001600160a01b031681565b6108916133dc565b6108996134a0565b336108a381613564565b60026108ae33610d94565b60028111156108bf576108bf614fd1565b146109115760405162461bcd60e51b815260206004820152601760248201527f63616c6c6572206d75737420626520756e626f6e64656400000000000000000060448201526064015b60405180910390fd5b610994600161091e613610565b6001600160a01b0316638a19c8bc6040518163ffffffff1660e01b815260040160206040518083038186803b15801561095657600080fd5b505afa15801561096a573d6000803e3d6000fd5b505050506040513d601f19601f8201168201806040525081019061098e919061528c565b90613689565b3360008181526003602052604090206004810192909255600290910180546001600160a01b0319166001600160a01b0388161790556109d590858585613695565b5050505050565b6109e46133dc565b6109ec6134a0565b6109f533613564565b336000908152600360205260408082206001600160a01b038981168452919092206002830154909116610a2988888861269d565b6006830154600090610a3c906001613822565b905060008460070160008381526020019081526020016000206001015490508460070160008381526020019081526020016000206000808201600090556001820160009055505060008460060154905060405180604001604052808c8152602001838152508560070160008381526020019081526020016000206000820151816000015560208201518160010155905050610ae56001866006015461368990919063ffffffff16565b600686015560408051848152602081018390529081018c90526001600160a01b038d169033907ff136b986590e86cf1abd7b6600186a7a1178ad3cbbdf0f3312e79f6214a2a5679060600160405180910390a36000610b42613610565b6001600160a01b0316638a19c8bc6040518163ffffffff1660e01b815260040160206040518083038186803b158015610b7a57600080fd5b505afa158015610b8e573d6000803e3d6000fd5b505050506040513d601f19601f82011682018060405250810190610bb2919061528c565b600587015490915081811015610bcd57610bcd8e838361382e565b60028701546001600160a01b0316158015610be757508654155b15610c62578d6001600160a01b0316866001600160a01b03161415610c1e5760405162461bcd60e51b8152600401610908906152a5565b6001600160a01b038e16610c445760405162461bcd60e51b8152600401610908906152a5565b6002870180546001600160a01b0319166001600160a01b0388161790555b6002610c6d8f610d94565b6002811115610c7e57610c7e614fd1565b1415610c9557610c8f826001613689565b60048801555b610ca18e848c8c613695565b5050505050505050505050505050565b6001600160a01b038116600090815260046020526040812081610cd2613610565b6001600160a01b0316638a19c8bc6040518163ffffffff1660e01b815260040160206040518083038186803b158015610d0a57600080fd5b505afa158015610d1e573d6000803e3d6000fd5b505050506040513d601f19601f82011682018060405250810190610d42919061528c565b905080826005015411158015610d5b5750816006015481105b949350505050565b6001600160a01b03919091166000908152600360209081526040808320938352600790930190522060010154151590565b6001600160a01b03811660009081526003602052604081208054610dbb5750600292915050565b610dc3613610565b6001600160a01b0316638a19c8bc6040518163ffffffff1660e01b815260040160206040518083038186803b158015610dfb57600080fd5b505afa158015610e0f573d6000803e3d6000fd5b505050506040513d601f19601f82011682018060405250810190610e33919061528c565b81600401541115610e475750600092915050565b50600192915050565b610e5b600080612120565b565b610e656133dc565b610e6d6139ba565b83610e7781613564565b6001600160a01b03851660009081526003602052604090208054869190156111e6576001600160a01b038716600090815260036020526040812054610ebc9087613ab5565b60405163b0138c4760e01b8152600760048201526001600160a01b038a16602482015290915073__$d23c89be677d40ab24c636937040b6165f$__9063b0138c479060440160206040518083038186803b158015610f1957600080fd5b505af4158015610f2d573d6000803e3d6000fd5b505050506040513d601f19601f82011682018060405250810190610f5191906152d0565b15610f5f57610f5f88613ace565b8154610f6b9082613822565b82556001610f7889610d94565b6002811115610f8957610f89614fd1565b1415610fdc5760028201546001600160a01b031660009081526003602081905260409091200154610fba9082613822565b60028301546001600160a01b0316600090815260036020819052604090912001555b806001600160a01b0388161561112b576000610ff88388613ab5565b9050611002613bc7565b60405163e7a49c2b60e01b81526001600160a01b038b8116600483015260248201849052919091169063e7a49c2b90604401600060405180830381600087803b15801561104e57600080fd5b505af1158015611062573d6000803e3d6000fd5b5050505061106e613bc7565b6001600160a01b031663c7ee98c26110868484613822565b6040518263ffffffff1660e01b81526004016110a491815260200190565b600060405180830381600087803b1580156110be57600080fd5b505af11580156110d2573d6000803e3d6000fd5b5050604080516001600160a01b038d8116825260208201889052918101859052908d1692507ff4b71fed8e2c9a8c67c388bc6d35ad20b9368a24eed6d565459f2b277b6c0c22915060600160405180910390a2506111df565b611133613bc7565b6001600160a01b031663c7ee98c2826040518263ffffffff1660e01b815260040161116091815260200190565b600060405180830381600087803b15801561117a57600080fd5b505af115801561118e573d6000803e3d6000fd5b5050604080516000808252602082018790528183015290516001600160a01b038d1693507ff4b71fed8e2c9a8c67c388bc6d35ad20b9368a24eed6d565459f2b277b6c0c2292509081900360600190a25b5050611235565b604080516001600160a01b038881168252600060208301819052828401529151918916917ff4b71fed8e2c9a8c67c388bc6d35ad20b9368a24eed6d565459f2b277b6c0c229181900360600190a25b506001600160a01b03811660009081526003602090815260408083206004909252909120611264918391613c18565b505050505050565b60405163e189dedb60e01b8152600760048201526001600160a01b038216602482015260009073__$d23c89be677d40ab24c636937040b6165f$__9063e189dedb9060440160206040518083038186803b1580156112c957600080fd5b505af41580156112dd573d6000803e3d6000fd5b505050506040513d601f19601f8201168201806040525081019061130191906152f2565b92915050565b61130f6133dc565b6113176134a0565b3361132133613564565b6001600160a01b0381166000908152600360209081526040808320600490925290912061134f918391613c18565b5050565b61135b6133dc565b6113636134a0565b33600081815260036020908152604080832085845260078101909252909120909161138e9084610d63565b6113d65760405162461bcd60e51b81526020600482015260196024820152781a5b9d985b1a59081d5b989bdb991a5b99c81b1bd8dac81251603a1b6044820152606401610908565b6113de613610565b6001600160a01b0316638a19c8bc6040518163ffffffff1660e01b815260040160206040518083038186803b15801561141657600080fd5b505afa15801561142a573d6000803e3d6000fd5b505050506040513d601f19601f8201168201806040525081019061144e919061528c565b816001015411156114c75760405162461bcd60e51b815260206004820152603b60248201527f776974686472617720726f756e64206d757374206265206265666f7265206f7260448201527f20657175616c20746f207468652063757272656e7420726f756e6400000000006064820152608401610908565b805460018083015460008681526007860160205260408120818155909201919091556114f1613bc7565b60405163e7a49c2b60e01b8152336004820152602481018490526001600160a01b03919091169063e7a49c2b90604401600060405180830381600087803b15801561153b57600080fd5b505af115801561154f573d6000803e3d6000fd5b505060408051888152602081018690529081018490523392507f1340f1a8f3d456a649e1a12071dfa15655e3d09252131d0f980c3b405cc8dd2e915060600160405180910390a25050505050565b6115a98160008061269d565b50565b604051631665d9cb60e31b81526007600482015260009073__$d23c89be677d40ab24c636937040b6165f$__9063b32ece58906024015b60206040518083038186803b1580156115fb57600080fd5b505af415801561160f573d6000803e3d6000fd5b505050506040513d601f19601f82011682018060405250810190611633919061528c565b905090565b6116406133dc565b6116486134a0565b611650613610565b6001600160a01b0316636841f2536040518163ffffffff1660e01b815260040160206040518083038186803b15801561168857600080fd5b505afa15801561169c573d6000803e3d6000fd5b505050506040513d601f19601f820116820180604052508101906116c091906152d0565b156117335760405162461bcd60e51b815260206004820152603760248201527f63616e277420757064617465207472616e73636f64657220706172616d732c2060448201527f63757272656e7420726f756e64206973206c6f636b65640000000000000000006064820152608401610908565b61174084620f4240101590565b61178c5760405162461bcd60e51b815260206004820152601c60248201527f696e76616c6964207265776172644375742070657263656e74616765000000006044820152606401610908565b61179983620f4240101590565b6117e55760405162461bcd60e51b815260206004820152601b60248201527f696e76616c69642066656553686172652070657263656e7461676500000000006044820152606401610908565b6117ee33611efa565b61183a5760405162461bcd60e51b815260206004820152601d60248201527f7472616e73636f646572206d75737420626520726567697374657265640000006044820152606401610908565b33600090815260046020526040812090611852613610565b6001600160a01b0316638a19c8bc6040518163ffffffff1660e01b815260040160206040518083038186803b15801561188a57600080fd5b505afa15801561189e573d6000803e3d6000fd5b505050506040513d601f19601f820116820180604052508101906118c2919061528c565b90506118cd33610cb1565b15806118d95750815481145b6119635760405162461bcd60e51b815260206004820152604f60248201527f63616c6c65722063616e277420626520616374697665206f72206d757374206860448201527f61766520616c72656164792063616c6c65642072657761726420666f7220746860648201526e194818dd5c9c995b9d081c9bdd5b99608a1b608482015260a401610908565b600182018690556002820185905560405163b0138c4760e01b81526007600482015233602482015273__$d23c89be677d40ab24c636937040b6165f$__9063b0138c479060440160206040518083038186803b1580156119c257600080fd5b505af41580156119d6573d6000803e3d6000fd5b505050506040513d601f19601f820116820180604052508101906119fa91906152d0565b611a29573360008181526003602081905260409091200154611a299190611a22846001613689565b8787613d44565b604080518781526020810187905233917f7346854431dbb3eb8e373c604abf89e90f4865b8447e1e2834d7b3e4677bf544910160405180910390a2505050505050565b61134f8282600080610889565b611a816133dc565b611a89614067565b611a9283611efa565b611ade5760405162461bcd60e51b815260206004820152601d60248201527f7472616e73636f646572206d75737420626520726567697374657265640000006044820152606401610908565b6000611ae8613610565b6001600160a01b0316638a19c8bc6040518163ffffffff1660e01b815260040160206040518083038186803b158015611b2057600080fd5b505afa158015611b34573d6000803e3d6000fd5b505050506040513d601f19601f82011682018060405250810190611b58919061528c565b6001600160a01b03851660009081526004602090815260408083208054600782015486865260038301909452918420949550939092611ba185611b9c886001613822565b614162565b905083861115611beb5760018581015460028088015492850191909155830155600485015486811015611be257600081815260038701602052604090205483555b85600801549350505b81546060820151158015611bfe57508685145b15611d2d576000611c0d613bc7565b90506000611cca611cc1836001600160a01b0316632de22cdb6040518163ffffffff1660e01b815260040160206040518083038186803b158015611c5057600080fd5b505afa158015611c64573d6000803e3d6000fd5b505050506040513d601f19601f82011682018060405250810190611c88919061528c565b846001600160a01b0316639ae6309a6040518163ffffffff1660e01b815260040160206040518083038186803b15801561095657600080fd5b84600554614207565b90506000611cda82600c5461422d565b9050611ce68282613822565b91506000611cf8838860010154613ab5565b90506000611d068483613822565b6003890154909150611d229087611d1d8482613689565b614207565b606088015250505050505b6000611d3d8a8560020154613ab5565b90506000611d4b8b83613822565b90506000611d5a838886614207565b9050611d778261098e838c6009015461368990919063ffffffff16565b60098a0155611d87868685614249565b50505050600a9094019490945550505050505050565b611da56142c4565b600e8190556040516000805160206153c483398151915290611df190602080825260169082015275747265617375727942616c616e63654365696c696e6760501b604082015260600190565b60405180910390a150565b61134f8282600080611638565b6040516339ade16560e11b81526007600482015260009073__$d23c89be677d40ab24c636937040b6165f$__9063735bc2ca906024016115e3565b611e4c6142c4565b60405163a176adaf60e01b8152600760048201526024810182905273__$d23c89be677d40ab24c636937040b6165f$__9063a176adaf9060440160006040518083038186803b158015611e9e57600080fd5b505af4158015611eb2573d6000803e3d6000fd5b505050506000805160206153c4833981519152604051611df1906020808252601490820152736e756d4163746976655472616e73636f6465727360601b604082015260600190565b6001600160a01b0380821660008181526003602052604081206002810154919390929116148015611f2b5750805415155b9392505050565b61126486338787878787612d31565b611f496143a8565b600654600555600c54600d5414611faf57600d54600c556040516000805160206153c483398151915290611fa69060208082526015908201527474726561737572795265776172644375745261746560581b604082015260600190565b60405180910390a15b611fb76144a3565b6001600160a01b031663ef105c91600554611fd0613610565b6001600160a01b0316638a19c8bc6040518163ffffffff1660e01b815260040160206040518083038186803b15801561200857600080fd5b505afa15801561201c573d6000803e3d6000fd5b505050506040513d601f19601f82011682018060405250810190612040919061528c565b6040516001600160e01b031960e085901b16815260048101929092526024820152604401600060405180830381600087803b15801561207e57600080fd5b505af1158015612092573d6000803e3d6000fd5b50505050565b6120a06133dc565b6120a86134a0565b336120b281613564565b60026120bd33610d94565b60028111156120ce576120ce614fd1565b14156121145760405162461bcd60e51b815260206004820152601560248201527418d85b1b195c881b5d5cdd08189948189bdb991959605a1b6044820152606401610908565b61209233858585613695565b6121286133dc565b6121306134a0565b33600061213b613610565b6001600160a01b0316638a19c8bc6040518163ffffffff1660e01b815260040160206040518083038186803b15801561217357600080fd5b505afa158015612187573d6000803e3d6000fd5b505050506040513d601f19601f820116820180604052508101906121ab919061528c565b90506121b633610cb1565b61220e5760405162461bcd60e51b815260206004820152602360248201527f63616c6c6572206d75737420626520616e20616374697665207472616e73636f6044820152623232b960e91b6064820152608401610908565b3360009081526004602052604090205481141561228c5760405162461bcd60e51b815260206004820152603660248201527f63616c6c65722068617320616c72656164792063616c6c65642072657761726460448201527508199bdc881d1a194818dd5c9c995b9d081c9bdd5b9960521b6064820152608401610908565b33600090815260046020908152604080832084845260038101909252909120600180830154600280850154928401919091558201556004820154838110156122e257600081815260038401602052604090205482555b600e54156123a85760006122f46144f4565b6001600160a01b03166370a0823161230a614545565b6040516001600160e01b031960e084901b1681526001600160a01b03909116600482015260240160206040518083038186803b15801561234957600080fd5b505afa15801561235d573d6000803e3d6000fd5b505050506040513d601f19601f82011682018060405250810190612381919061528c565b9050600e54811015801561239757506000600d54115b156123a6576123a66000614596565b505b60006123b2613bc7565b8354600554604051637dbedad560e01b81529293506000926001600160a01b03851692637dbedad5926123f092600401918252602082015260400190565b602060405180830381600087803b15801561240a57600080fd5b505af115801561241e573d6000803e3d6000fd5b505050506040513d601f19601f82011682018060405250810190612442919061528c565b9050600061245282600c5461422d565b90508015612510576000612464614545565b60405163e7a49c2b60e01b81526001600160a01b038083166004830152602482018590529192509085169063e7a49c2b90604401600060405180830381600087803b1580156124b257600080fd5b505af11580156124c6573d6000803e3d6000fd5b5050604080516001600160a01b0385168152602081018690523393507f40e200718fe552021167687e5491d09f5931275b6f88f14a462650f0effb523792500160405180910390a2505b600061251c8383613822565b905061252b33828a8e8e61465a565b87875560405181815233907f619caafabdd75649b302ba8419e48cccf64f37f1983ac4727cfb38b57703ffc99060200160405180910390a2505050506001600160a01b0385166000908152600360209081526040808320600490925290912061259c95508694509092509050613c18565b505050565b604051632ebb2fed60e01b81526007600482015260009073__$d23c89be677d40ab24c636937040b6165f$__90632ebb2fed9060240160206040518083038186803b1580156125ef57600080fd5b505af4158015612603573d6000803e3d6000fd5b505050506040513d601f19601f8201168201806040525081019061163391906152f2565b600061263282611efa565b1561263f57506001919050565b506000919050565b61264f61471c565b600080546001600160a01b0319166001600160a01b0383169081179091556040519081527f4ff638452bbf33c012645d18ae6f05515ff5f2d1dfb0cece8cbf018c60903f7090602001611df1565b6126a56133dc565b6126ad6134a0565b336126b781613564565b3360016126c333610d94565b60028111156126d4576126d4614fd1565b146127195760405162461bcd60e51b815260206004820152601560248201527418d85b1b195c881b5d5cdd08189948189bdb991959605a1b6044820152606401610908565b336000908152600360205260409020856127815760405162461bcd60e51b8152602060048201526024808201527f756e626f6e6420616d6f756e74206d75737420626520677265617465722074686044820152630616e20360e41b6064820152608401610908565b80548611156127de5760405162461bcd60e51b8152602060048201526024808201527f616d6f756e742069732067726561746572207468616e20626f6e64656420616d6044820152631bdd5b9d60e21b6064820152608401610908565b60028101546001600160a01b031660006127f6613610565b6001600160a01b0316638a19c8bc6040518163ffffffff1660e01b815260040160206040518083038186803b15801561282e57600080fd5b505afa158015612842573d6000803e3d6000fd5b505050506040513d601f19601f82011682018060405250810190612866919061528c565b60025490915060009061288490839067ffffffffffffffff16613689565b60068501546040805180820182528c81526020808201858152600085815260078b01909252929020905181559051600191820155919250906128c7908290613689565b600686015584546128d8908b613822565b808655612995576002850180546001600160a01b0319169055600060048087019190915560405163b0138c4760e01b815260079181019190915233602482015273__$d23c89be677d40ab24c636937040b6165f$__9063b0138c479060440160206040518083038186803b15801561294f57600080fd5b505af4158015612963573d6000803e3d6000fd5b505050506040513d601f19601f8201168201806040525081019061298791906152d0565b156129955761299533613ace565b6129a1848b8b8b614776565b6001600160a01b03841633146129df576001600160a01b038416600090815260036020908152604080832060049092529091206129df918691613c18565b60408051828152602081018c905290810183905233906001600160a01b038616907f2d5d98d189bee5496a08db2a5948cb7e5e786f09d17d0c3f228eb41776c24a069060600160405180910390a35050506001600160a01b038316600090815260036020908152604080832060049092529091206109d59350849250613c18565b600080612a6b613610565b6001600160a01b0316638a19c8bc6040518163ffffffff1660e01b815260040160206040518083038186803b158015612aa357600080fd5b505afa158015612ab7573d6000803e3d6000fd5b505050506040513d601f19601f82011682018060405250810190612adb919061528c565b90506000612ae985836149b3565b5095945050505050565b6001600160a01b03166000908152600360208190526040909120015490565b612b1a6133dc565b612b226134a0565b33612b2c81613564565b336001600160a01b038416612b775760405162461bcd60e51b81526020600482015260116024820152701a5b9d985b1a59081c9958da5c1a595b9d607a1b6044820152606401610908565b3360009081526003602052604090206001015483811015612bda5760405162461bcd60e51b815260206004820152601d60248201527f696e73756666696369656e74206665657320746f2077697468647261770000006044820152606401610908565b612be48185613822565b33600090815260036020526040902060010155612bff613bc7565b6040516320283da960e01b81526001600160a01b0387811660048301526024820187905291909116906320283da990604401600060405180830381600087803b158015612c4b57600080fd5b505af1158015612c5f573d6000803e3d6000fd5b5050604080516001600160a01b0389168152602081018890523393507f4f1b51dd7a2fcb861aa2670f668be66835c4ee12b4bbbf037e4d0018f39819e492500160405180910390a2506001600160a01b03811660009081526003602090815260408083206004909252909120612092918391613c18565b61134f8282600080600080611f32565b612cee6142c4565b6115a981614596565b6001600160a01b038116600090815260036020908152604080832060049092529091206115a9918391613c18565b6115a981600080612098565b612d396133dc565b612d416134a0565b612d4a86613564565b6001600160a01b038616600090815260036020526040812090612d6b613610565b6001600160a01b0316638a19c8bc6040518163ffffffff1660e01b815260040160206040518083038186803b158015612da357600080fd5b505afa158015612db7573d6000803e3d6000fd5b505050506040513d601f19601f82011682018060405250810190612ddb919061528c565b600283015483549192508a916001600160a01b03918216918b163314801590612e1d5750612e07614a78565b6001600160a01b0316336001600160a01b031614155b15612f25576001600160a01b038b16612e485760405162461bcd60e51b8152600401610908906152a5565b6002612e538c610d94565b6002811115612e6457612e64614fd1565b1415612ec4578a6001600160a01b03168a6001600160a01b03161415612ebf5760405162461bcd60e51b815260206004820152601060248201526f494e56414c49445f44454c454741544560801b6044820152606401610908565b612f25565b896001600160a01b0316826001600160a01b031614612f255760405162461bcd60e51b815260206004820152601760248201527f494e56414c49445f44454c45474154455f4348414e47450000000000000000006044820152606401610908565b6002612f308c610d94565b6002811115612f4157612f41614fd1565b1415612f5c57612f52846001613689565b6004860155613055565b600081118015612f7e5750896001600160a01b0316826001600160a01b031614155b1561305557612f8c8b611efa565b15612fff5760405162461bcd60e51b815260206004820152603d60248201527f72656769737465726564207472616e73636f646572732063616e27742064656c60448201527f656761746520746f7761726473206f74686572206164647265737365730000006064820152608401610908565b61300a846001613689565b60048601556130198382613689565b925061302782828b8b614776565b6001600160a01b03821660009081526003602090815260408083206004909252909120613055918491613c18565b6001600160a01b038a166000908152600460209081526040808320878452600380820190935292209081015461309d57613093828360000154614ac9565b6060015160038201555b60048101546130be576130b48283600a0154614ac9565b6080015160048201555b5050600083116131215760405162461bcd60e51b815260206004820152602860248201527f64656c65676174696f6e20616d6f756e74206d75737420626520677265617465604482015267072207468616e20360c41b6064820152608401610908565b6002850180546001600160a01b0319166001600160a01b038c16179055613148818d613689565b85556131568a848989614b2c565b8a6001600160a01b03168a6001600160a01b03161461319d576001600160a01b038a166000908152600360209081526040808320600490925290912061319d918c91613c18565b8b1561324b576131ab6144f4565b6001600160a01b03166323b872dd336131c2613bc7565b6040516001600160e01b031960e085901b1681526001600160a01b03928316600482015291166024820152604481018f9052606401602060405180830381600087803b15801561321157600080fd5b505af1158015613225573d6000803e3d6000fd5b505050506040513d601f19601f8201168201806040525081019061324991906152d0565b505b8a6001600160a01b0316826001600160a01b03168b6001600160a01b03167fe5917769f276ddca9f2ee7c6b0b33e1d1e1b61008010ce622c632dd20d168a238f89600001546040516132a7929190918252602082015260400190565b60405180910390a46001600160a01b038b1660009081526004602052604090206132d4908c908790613c18565b505050505050505050505050565b6132ea6142c4565b6002805467ffffffffffffffff831667ffffffffffffffff199091161790556040516000805160206153c483398151915290611df1906020808252600f908201526e1d5b989bdb991a5b99d4195c9a5bd9608a1b604082015260600190565b600080613354613610565b6001600160a01b0316638a19c8bc6040518163ffffffff1660e01b815260040160206040518083038186803b15801561338c57600080fd5b505afa1580156133a0573d6000803e3d6000fd5b505050506040513d601f19601f820116820180604052508101906133c4919061528c565b905060006133d285836149b3565b9695505050505050565b60008054906101000a90046001600160a01b03166001600160a01b0316635c975abb6040518163ffffffff1660e01b815260040160206040518083038186803b15801561342857600080fd5b505afa15801561343c573d6000803e3d6000fd5b505050506040513d601f19601f8201168201806040525081019061346091906152d0565b15610e5b5760405162461bcd60e51b815260206004820152601060248201526f1cde5cdd195b481a5cc81c185d5cd95960821b6044820152606401610908565b6134a8613610565b6001600160a01b031663219bc76c6040518163ffffffff1660e01b815260040160206040518083038186803b1580156134e057600080fd5b505afa1580156134f4573d6000803e3d6000fd5b505050506040513d601f19601f8201168201806040525081019061351891906152d0565b610e5b5760405162461bcd60e51b815260206004820181905260248201527f63757272656e7420726f756e64206973206e6f7420696e697469616c697a65646044820152606401610908565b600061356e613610565b6001600160a01b0316638a19c8bc6040518163ffffffff1660e01b815260040160206040518083038186803b1580156135a657600080fd5b505afa1580156135ba573d6000803e3d6000fd5b505050506040513d601f19601f820116820180604052508101906135de919061528c565b6001600160a01b0383166000908152600360205260409020600501549091508181101561259c5761259c83838361382e565b60008054604051631c2d8fb360e31b81527fe8438ea868df48e3fc21f2f087b993c9b1837dc0f6135064161ce7d7a1701fe860048201526001600160a01b039091169063e16c7d98906024015b60206040518083038186803b15801561367557600080fd5b505afa158015612603573d6000803e3d6000fd5b6000611f2b8284615325565b6001600160a01b0384166000908152600360209081526040808320868452600781019092529091208591906136ca8387610d63565b6137125760405162461bcd60e51b81526020600482015260196024820152781a5b9d985b1a59081d5b989bdb991a5b99c81b1bd8dac81251603a1b6044820152606401610908565b805482546137209082613689565b8355600087815260078401602052604081208181556001015560028301546001600160a01b031661375381838989614b2c565b886001600160a01b0316816001600160a01b03161461379a576001600160a01b0381166000908152600360209081526040808320600490925290912061379a918391613c18565b886001600160a01b0316816001600160a01b03167f9f5b64cc71e1e26ff178caaa7877a04d8ce66fde989251870e80e6fbee690c178a856040516137e8929190918252602082015260400190565b60405180910390a3505050506001600160a01b038116600090815260036020908152604080832060049092529091206109d5918391613c18565b6000611f2b828461533d565b6001600160a01b038316600090815260036020526040812090613852836001613689565b82546001840154600285015492935090916001600160a01b03161561392c5761387b87876149b3565b60028601546001600160a01b031660009081526004602090815260408083208b84526003808201909352922090810154939550919350916138d6578154888110156138d4576138ca8382614ac9565b6060015160038301555b505b600481015461390257600a82015488811015613900576138f68382614ac9565b6080015160048301555b505b60028601546001600160a01b038a8116911614156139295760006009830181905560088301555b50505b600284015484546001600160a01b03808a169216907fd7eab0765b772ea6ea859d5633baf737502198012e930f257f90013d9b2110949061396e908690613822565b600188015461397e908690613822565b6040805192835260208301919091528101879052606081018a905260800160405180910390a36005840195909555825550600101919091555050565b600054604051631c2d8fb360e31b81527f121833d5ee4fda5e1a4034c2b7be8155c158142541dea26f39122c796649233f60048201526001600160a01b039091169063e16c7d989060240160206040518083038186803b158015613a1d57600080fd5b505afa158015613a31573d6000803e3d6000fd5b505050506040513d601f19601f82011682018060405250810190613a5591906152f2565b6001600160a01b0316336001600160a01b031614610e5b5760405162461bcd60e51b815260206004820152601760248201527f63616c6c6572206d7573742062652056657269666965720000000000000000006044820152606401610908565b6000611f2b620f4240613ac88585614d5c565b90614d68565b604051635d35e00760e01b8152600760048201526001600160a01b038216602482015273__$d23c89be677d40ab24c636937040b6165f$__90635d35e0079060440160006040518083038186803b158015613b2857600080fd5b505af4158015613b3c573d6000803e3d6000fd5b50505050613b55613b4c82612af3565b60065490613822565b6006556000613b67600161091e613610565b6001600160a01b0383166000818152600460205260409081902060060183905551919250907ffee3e693fc72d0a0a673805f3e606c551f4c677b9072444b90dd2d0406bc995c90613bbb9084815260200190565b60405180910390a25050565b60008054604051631c2d8fb360e31b81527f6e58ad548d72b425ea94c15f453bf26caddb061d82b2551db7fdd3cefe0e994060048201526001600160a01b039091169063e16c7d989060240161365d565b6000613c22613610565b6001600160a01b0316638a19c8bc6040518163ffffffff1660e01b815260040160206040518083038186803b158015613c5a57600080fd5b505afa158015613c6e573d6000803e3d6000fd5b505050506040513d601f19601f82011682018060405250810190613c92919061528c565b613c9d906001615325565b9050613ca76144a3565b8354600285015460038601546005870154865460405163e35c3e4360e01b81526001600160a01b038b811660048301526024820189905260448201969096529385166064850152608484019290925260a483015260c482015291169063e35c3e439060e401600060405180830381600087803b158015613d2657600080fd5b505af1158015613d3a573d6000803e3d6000fd5b5050505050505050565b6006546040516304aa129960e41b81526007600482015273__$d23c89be677d40ab24c636937040b6165f$__90634aa129909060240160206040518083038186803b158015613d9257600080fd5b505af4158015613da6573d6000803e3d6000fd5b505050506040513d601f19601f82011682018060405250810190613dca91906152d0565b15613f5557604051633972059360e11b81526007600482015260009073__$d23c89be677d40ab24c636937040b6165f$__906372e40b269060240160206040518083038186803b158015613e1d57600080fd5b505af4158015613e31573d6000803e3d6000fd5b505050506040513d601f19601f82011682018060405250810190613e5591906152f2565b90506000613e6282612af3565b9050808711613e73575050506109d5565b604051635d35e00760e01b8152600760048201526001600160a01b038316602482015273__$d23c89be677d40ab24c636937040b6165f$__90635d35e0079060440160006040518083038186803b158015613ecd57600080fd5b505af4158015613ee1573d6000803e3d6000fd5b5050506001600160a01b038316600090815260046020526040902060060187905550613f0d8382613822565b9250816001600160a01b03167ffee3e693fc72d0a0a673805f3e606c551f4c677b9072444b90dd2d0406bc995c87604051613f4a91815260200190565b60405180910390a250505b6040516327dd54d360e11b815273__$d23c89be677d40ab24c636937040b6165f$__90634fbaa9a690613f95906007908a908a9089908990600401615354565b60006040518083038186803b158015613fad57600080fd5b505af4158015613fc1573d6000803e3d6000fd5b50505050613fd8858261368990919063ffffffff16565b6001600160a01b03871660009081526004602081815260408084209283018990556005830189905560001960068401558884526003830190915290912087905590915060068290556040518581526001600160a01b038816907f65d72d782835d64c3287844a829608d5abdc7e864cc9affe96d910ab3db665e99060200160405180910390a250505050505050565b600054604051631c2d8fb360e31b81527fbd1aa3e8d2464256d7fd3dcf645c16418d5d8c51d971f1ad7d57e7b1b5eee23960048201526001600160a01b039091169063e16c7d989060240160206040518083038186803b1580156140ca57600080fd5b505afa1580156140de573d6000803e3d6000fd5b505050506040513d601f19601f8201168201806040525081019061410291906152f2565b6001600160a01b0316336001600160a01b031614610e5b5760405162461bcd60e51b815260206004820152601b60248201527f63616c6c6572206d757374206265205469636b657442726f6b657200000000006044820152606401610908565b6141946040518060a0016040528060008152602001600081526020016000815260200160008152602001600081525090565b61419e8383614ac9565b83546060820151919250901580156141b557508281105b156141cf576141c48482614ac9565b606090810151908301525b600a84015460808301511580156141e557508381105b156141ff576141f48582614ac9565b608090810151908401525b505092915050565b6000610d5b6b033b2e3c9fd0803ce8000000613ac86142268686614d74565b8790614d5c565b6000611f2b6b033b2e3c9fd0803ce8000000613ac88585614d5c565b6080820151606083015160009061426a57614265600180614d74565b614270565b83606001515b90508460040154600014156142a75761429861429182858860000154614207565b8390613689565b85600401819055505050505050565b6142986142b982858860000154614207565b600487015490613689565b60008054906101000a90046001600160a01b03166001600160a01b0316638da5cb5b6040518163ffffffff1660e01b815260040160206040518083038186803b15801561431057600080fd5b505afa158015614324573d6000803e3d6000fd5b505050506040513d601f19601f8201168201806040525081019061434891906152f2565b6001600160a01b0316336001600160a01b031614610e5b5760405162461bcd60e51b815260206004820152601f60248201527f63616c6c6572206d75737420626520436f6e74726f6c6c6572206f776e6572006044820152606401610908565b600054604051631c2d8fb360e31b81527fe8438ea868df48e3fc21f2f087b993c9b1837dc0f6135064161ce7d7a1701fe860048201526001600160a01b039091169063e16c7d989060240160206040518083038186803b15801561440b57600080fd5b505afa15801561441f573d6000803e3d6000fd5b505050506040513d601f19601f8201168201806040525081019061444391906152f2565b6001600160a01b0316336001600160a01b031614610e5b5760405162461bcd60e51b815260206004820152601c60248201527f63616c6c6572206d75737420626520526f756e64734d616e61676572000000006044820152606401610908565b60008054604051631c2d8fb360e31b81527f2a1b465fbcae519904f0fb11f93e73dfbeb47ec54530ec444279610af8cf06b260048201526001600160a01b039091169063e16c7d989060240161365d565b60008054604051631c2d8fb360e31b81527f3443e257065fe41dd0e4d1f5a1b73a22a62e300962b57f30cddf41d0f8273ba760048201526001600160a01b039091169063e16c7d989060240161365d565b60008054604051631c2d8fb360e31b81527f6efca2866b731ee4984990bacad4cde10f1ef764fb54a5206bdfd291695b1a9b60048201526001600160a01b039091169063e16c7d989060240161365d565b6145ac816b033b2e3c9fd0803ce8000000101590565b6146075760405162461bcd60e51b815260206004820152602660248201527f5f6375745261746520697320696e76616c696420707265636973652070657263604482015265656e7461676560d01b6064820152608401610908565b600d8190556040516000805160206153c483398151915290611df1906020808252601e908201527f6e657874526f756e645472656173757279526577617264437574526174650000604082015260600190565b6001600160a01b0385166000908152600460209081526040808320868452600381019092528220815491929091614692908490614ac9565b90508260080154836007018190555060006146b1888460010154613ab5565b905060006146bf8983613822565b905060006146d68287600701548760000154614207565b90506146f38361098e83896008015461368990919063ffffffff16565b6008870155614703858584614d90565b61470f8b8b8a8a614b2c565b5050505050505050505050565b6000546001600160a01b03163314610e5b5760405162461bcd60e51b815260206004820152601960248201527f63616c6c6572206d75737420626520436f6e74726f6c6c6572000000000000006044820152606401610908565b6001600160a01b03841660009081526004602052604081209061479886612af3565b905060006147a68287613822565b60405163b0138c4760e01b8152600760048201526001600160a01b038916602482015290915073__$d23c89be677d40ab24c636937040b6165f$__9063b0138c479060440160206040518083038186803b15801561480357600080fd5b505af4158015614817573d6000803e3d6000fd5b505050506040513d601f19601f8201168201806040525081019061483b91906152d0565b1561498b57600061484a613610565b6001600160a01b0316638a19c8bc6040518163ffffffff1660e01b815260040160206040518083038186803b15801561488257600080fd5b505afa158015614896573d6000803e3d6000fd5b505050506040513d601f19601f820116820180604052508101906148ba919061528c565b905060006148c9826001613689565b604051631c11bf7f60e11b815290915073__$d23c89be677d40ab24c636937040b6165f$__906338237efe9061490c906007908d9088908d908d90600401615354565b60006040518083038186803b15801561492457600080fd5b505af4158015614938573d6000803e3d6000fd5b505060065461494a9250905089613822565b600655600485015482111561496d57600082815260038601602052604090208490555b60048501819055600081815260038601602052604090208390555b50505b6001600160a01b03909616600090815260036020819052604090912001959095555050505050565b6001600160a01b038083166000908152600360209081526040808320600281015490941683526004909152812060018084015484546005860154909591949193926149fe9190613689565b60028401549091506001600160a01b039081169088168114878311614a3a57614a3484614a2c856001613822565b8a8a8a614dde565b90975095505b8015614a6c576008840154614a50908890613689565b9650614a6984600901548761368990919063ffffffff16565b95505b50505050509250929050565b60008054604051631c2d8fb360e31b81527f74b6d21e0d4650f622c903126d418c1a52bcc99ea7acb0db0809fc0eeae6c7c360048201526001600160a01b039091169063e16c7d989060240161365d565b614afb6040518060a0016040528060008152602001600081526020016000815260200160008152602001600081525090565b6000828152600393840160208181526040832095860154606085015293909152909152600490910154608082015290565b6001600160a01b038416600090815260046020526040812090614b4e86612af3565b90506000614b5c8287613689565b9050614b6787611efa565b1561498b576000614b76613610565b6001600160a01b0316638a19c8bc6040518163ffffffff1660e01b815260040160206040518083038186803b158015614bae57600080fd5b505afa158015614bc2573d6000803e3d6000fd5b505050506040513d601f19601f82011682018060405250810190614be6919061528c565b90506000614bf5826001613689565b60405163b0138c4760e01b8152600760048201526001600160a01b038b16602482015290915073__$d23c89be677d40ab24c636937040b6165f$__9063b0138c479060440160206040518083038186803b158015614c5257600080fd5b505af4158015614c66573d6000803e3d6000fd5b505050506040513d601f19601f82011682018060405250810190614c8a91906152d0565b15614d4f57604051631c11bf7f60e11b815273__$d23c89be677d40ab24c636937040b6165f$__906338237efe90614ccf906007908d9088908d908d90600401615354565b60006040518083038186803b158015614ce757600080fd5b505af4158015614cfb573d6000803e3d6000fd5b5050600654614d0d9250905089613689565b6006556004850154821115614d3057600082815260038601602052604090208490555b6000818152600386016020526040902083905560048501819055614988565b6149888984838a8a613d44565b6000611f2b8284615382565b6000611f2b82846153a1565b6000611f2b82613ac8856b033b2e3c9fd0803ce8000000614d5c565b6000826060015160001415614daf57614daa600180614d74565b614db5565b82606001515b9050614dd0614dc982848760000154614207565b8290613689565b846003018190555050505050565b6000806000614ded8888614ac9565b90506000614dfb8988614162565b9050614e0982828888614e19565b9350935050509550959350505050565b600080856060015160001415614e3a57614e34600180614d74565b60608701525b6060850151614e5457614e4e600180614d74565b60608601525b614e87614e8085614e768960800151896080015161382290919063ffffffff16565b8960600151614207565b8490613689565b9050614e9c8486606001518860600151614207565b915094509492505050565b6001600160a01b03811681146115a957600080fd5b60008060008060808587031215614ed257600080fd5b8435614edd81614ea7565b9350602085013592506040850135614ef481614ea7565b91506060850135614f0481614ea7565b939692955090935050565b60008060008060008060c08789031215614f2857600080fd5b8635614f3381614ea7565b9550602087013594506040870135614f4a81614ea7565b93506060870135614f5a81614ea7565b92506080870135614f6a81614ea7565b915060a0870135614f7a81614ea7565b809150509295509295509295565b600060208284031215614f9a57600080fd5b8135611f2b81614ea7565b60008060408385031215614fb857600080fd5b8235614fc381614ea7565b946020939093013593505050565b634e487b7160e01b600052602160045260246000fd5b6020810160038310614ffb57614ffb614fd1565b91905290565b6000806000806080858703121561501757600080fd5b843561502281614ea7565b9350602085013561503281614ea7565b93969395505050506040820135916060013590565b60006020828403121561505957600080fd5b5035919050565b6000806000806080858703121561507657600080fd5b84359350602085013592506040850135614ef481614ea7565b6000806000606084860312156150a457600080fd5b83356150af81614ea7565b95602085013595506040909401359392505050565b600080604083850312156150d757600080fd5b50508035926020909101359150565b60008060008060008060c087890312156150ff57600080fd5b86359550602087013561511181614ea7565b94506040870135614f4a81614ea7565b60008060006060848603121561513657600080fd5b83359250602084013561514881614ea7565b9150604084013561515881614ea7565b809150509250925092565b6000806040838503121561517657600080fd5b823561518181614ea7565b9150602083013561519181614ea7565b809150509250929050565b6020810160028310614ffb57614ffb614fd1565b600080604083850312156151c357600080fd5b82359150602083013561519181614ea7565b600080600080600080600060e0888a0312156151f057600080fd5b87359650602088013561520281614ea7565b9550604088013561521281614ea7565b9450606088013561522281614ea7565b9350608088013561523281614ea7565b925060a088013561524281614ea7565b915060c088013561525281614ea7565b8091505092959891949750929550565b60006020828403121561527457600080fd5b813567ffffffffffffffff81168114611f2b57600080fd5b60006020828403121561529e57600080fd5b5051919050565b60208082526011908201527024a72b20a624a22fa222a622a3a0aa27a960791b604082015260600190565b6000602082840312156152e257600080fd5b81518015158114611f2b57600080fd5b60006020828403121561530457600080fd5b8151611f2b81614ea7565b634e487b7160e01b600052601160045260246000fd5b600082198211156153385761533861530f565b500190565b60008282101561534f5761534f61530f565b500390565b9485526001600160a01b03938416602086015260408501929092528216606084015216608082015260a00190565b600081600019048311821515161561539c5761539c61530f565b500290565b6000826153be57634e487b7160e01b600052601260045260246000fd5b50049056fe9f5033568d78ae30f29f01e944f97b2216493bd19d1b46d429673acff3dcd674a2646970667358221220afdf5b3e1de9b7deb0ecca46d0224b820dd44a9e754f9b651721ecebf290d39664736f6c63430008090033",
  "linkReferences": {
    "contracts/libraries/SortedDoublyLL.sol": {
      "SortedDoublyLL": [
        {
          "length": 20,
          "start": 3968
        },
        {
          "length": 20,
          "start": 4912
        },
        {
          "length": 20,
          "start": 5729
        },
        {
          "length": 20,
          "start": 6697
        },
        {
          "length": 20,
          "start": 7870
        },
        {
          "length": 20,
          "start": 7941
        },
        {
          "length": 20,
          "start": 9814
        },
        {
          "length": 20,
          "start": 10678
        },
        {
          "length": 20,
          "start": 15247
        },
        {
          "length": 20,
          "start": 15865
        },
        {
          "length": 20,
          "start": 16004
        },
        {
          "length": 20,
          "start": 16180
        },
        {
          "length": 20,
          "start": 16384
        },
        {
          "length": 20,
          "start": 18538
        },
        {
          "length": 20,
          "start": 18807
        },
        {
          "length": 20,
          "start": 19641
        },
        {
          "length": 20,
          "start": 19770
        }
      ]
    }
  },
  "deployedLinkReferences": {
    "contracts/libraries/SortedDoublyLL.sol": {
      "SortedDoublyLL": [
        {
          "length": 20,
          "start": 3812
        },
        {
          "length": 20,
          "start": 4756
        },
        {
          "length": 20,
          "start": 5573
        },
        {
          "length": 20,
          "start": 6541
        },
        {
          "length": 20,
          "start": 7714
        },
        {
          "length": 20,
          "start": 7785
        },
        {
          "length": 20,
          "start": 9658
        },
        {
          "length": 20,
          "start": 10522
        },
        {
          "length": 20,
          "start": 15091
        },
        {
          "length": 20,
          "start": 15709
        },
        {
          "length": 20,
          "start": 15848
        },
        {
          "length": 20,
          "start": 16024
        },
        {
          "length": 20,
          "start": 16228
        },
        {
          "length": 20,
          "start": 18382
        },
        {
          "length": 20,
          "start": 18651
        },
        {
          "length": 20,
          "start": 19485
        },
        {
          "length": 20,
          "start": 19614
        }
      ]
    }
  }
}