{
  "_format": "hh-sol-artifact-1",
  "contractName": "RoundsManager",
  "sourceName": "contracts/rounds/RoundsManager.sol",
  "abi": [
    {
      "inputs": [
        {
          "internalType": "address",
          "name": "_controller",
          "type": "address"
        }
      ],
      "stateMutability": "nonpayable",
      "type": "constructor"
    },
    {
      "anonymous": false,
      "inputs": [
        {
          "indexed": true,
          "internalType": "uint256",
          "name": "round",
          "type": "uint256"
        },
        {
          "indexed": false,
          "internalType": "bytes32",
          "name": "blockHash",
          "type": "bytes32"
        }
      ],
      "name": "NewRound",
      "type": "event"
    },
    {
      "anonymous": false,
      "inputs": [
        {
          "indexed": false,
          "internalType": "string",
          "name": "param",
          "type": "string"
        }
      ],
      "name": "ParameterUpdate",
      "type": "event"
    },
    {
      "anonymous": false,
      "inputs": [
        {
          "indexed": false,
          "internalType": "address",
          "name": "controller",
          "type": "address"
        }
      ],
      "name": "SetController",
      "type": "event"
    },
    {
      "inputs": [
        {
          "internalType": "uint256",
          "name": "_block",
          "type": "uint256"
        }
      ],
      "name": "blockHash",
      "outputs": [
        {
          "internalType": "bytes32",
          "name": "",
          "type": "bytes32"
        }
      ],
      "stateMutability": "view",
      "type": "function"
    },
    {
      "inputs": [
        {
          "internalType": "uint256",
          "name": "_round",
          "type": "uint256"
        }
      ],
      "name": "blockHashForRound",
      "outputs": [
        {
          "internalType": "bytes32",
          "name": "",
          "type": "bytes32"
        }
      ],
      "stateMutability": "view",
      "type": "function"
    },
    {
      "inputs": [],
      "name": "blockNum",
      "outputs": [
        {
          "internalType": "uint256",
          "name": "",
          "type": "uint256"
        }
      ],
      "stateMutability": "view",
      "type": "function"
    },
    {
      "inputs": [],
      "name": "controller",
      "outputs": [
        {
          "internalType": "contract IController",
          "name": "",
          "type": "address"
        }
      ],
      "stateMutability": "view",
      "type": "function"
    },
    {
      "inputs": [],
      "name": "currentRound",
      "outputs": [
        {
          "internalType": "uint256",
          "name": "",
          "type": "uint256"
        }
      ],
      "stateMutability": "view",
      "type": "function"
    },
    {
      "inputs": [],
      "name": "currentRoundInitialized",
      "outputs": [
        {
          "internalType": "bool",
          "name": "",
          "type": "bool"
        }
      ],
      "stateMutability": "view",
      "type": "function"
    },
    {
      "inputs": [],
      "name": "currentRoundLocked",
      "outputs": [
        {
          "internalType": "bool",
          "name": "",
          "type": "bool"
        }
      ],
      "stateMutability": "view",
      "type": "function"
    },
    {
      "inputs": [],
      "name": "currentRoundStartBlock",
      "outputs": [
        {
          "internalType": "uint256",
          "name": "",
          "type": "uint256"
        }
      ],
      "stateMutability": "view",
      "type": "function"
    },
    {
      "inputs": [],
      "name": "initializeRound",
      "outputs": [],
      "stateMutability": "nonpayable",
      "type": "function"
    },
    {
      "inputs": [],
      "name": "lastInitializedRound",
      "outputs": [
        {
          "internalType": "uint256",
          "name": "",
          "type": "uint256"
        }
      ],
      "stateMutability": "view",
      "type": "function"
    },
    {
      "inputs": [],
      "name": "lastRoundLengthUpdateRound",
      "outputs": [
        {
          "internalType": "uint256",
          "name": "",
          "type": "uint256"
        }
      ],
      "stateMutability": "view",
      "type": "function"
    },
    {
      "inputs": [],
      "name": "lastRoundLengthUpdateStartBlock",
      "outputs": [
        {
          "internalType": "uint256",
          "name": "",
          "type": "uint256"
        }
      ],
      "stateMutability": "view",
      "type": "function"
    },
    {
      "inputs": [
        {
          "internalType": "uint256",
          "name": "",
          "type": "uint256"
        }
      ],
      "name": "lipUpgradeRound",
      "outputs": [
        {
          "internalType": "uint256",
          "name": "",
          "type": "uint256"
        }
      ],
      "stateMutability": "view",
      "type": "function"
    },
    {
      "inputs": [],
      "name": "roundLength",
      "outputs": [
        {
          "internalType": "uint256",
          "name": "",
          "type": "uint256"
        }
      ],
      "stateMutability": "view",
      "type": "function"
    },
    {
      "inputs": [],
      "name": "roundLockAmount",
      "outputs": [
        {
          "internalType": "uint256",
          "name": "",
          "type": "uint256"
        }
      ],
      "stateMutability": "view",
      "type": "function"
    },
    {
      "inputs": [
        {
          "internalType": "address",
          "name": "_controller",
          "type": "address"
        }
      ],
      "name": "setController",
      "outputs": [],
      "stateMutability": "nonpayable",
      "type": "function"
    },
    {
      "inputs": [
        {
          "internalType": "uint256",
          "name": "_lip",
          "type": "uint256"
        },
        {
          "internalType": "uint256",
          "name": "_round",
          "type": "uint256"
        }
      ],
      "name": "setLIPUpgradeRound",
      "outputs": [],
      "stateMutability": "nonpayable",
      "type": "function"
    },
    {
      "inputs": [
        {
          "internalType": "uint256",
          "name": "_roundLength",
          "type": "uint256"
        }
      ],
      "name": "setRoundLength",
      "outputs": [],
      "stateMutability": "nonpayable",
      "type": "function"
    },
    {
      "inputs": [
        {
          "internalType": "uint256",
          "name": "_roundLockAmount",
          "type": "uint256"
        }
      ],
      "name": "setRoundLockAmount",
      "outputs": [],
      "stateMutability": "nonpayable",
      "type": "function"
    },
    {
      "inputs": [],
      "name": "targetContractId",
      "outputs": [
        {
          "internalType": "bytes32",
          "name": "",
          "type": "bytes32"
        }
      ],
      "stateMutability": "view",
      "type": "function"
    }
  ],
  "bytecode": "0x608060405234801561001057600080fd5b50604051610d6d380380610d6d83398101604081905261002f91610054565b600080546001600160a01b0319166001600160a01b0392909216919091179055610084565b60006020828403121561006657600080fd5b81516001600160a01b038116811461007d57600080fd5b9392505050565b610cda806100936000396000f3fe608060405234801561001057600080fd5b506004361061012c5760003560e01c806385df51fd116100ad5780638fa148f2116100715780638fa148f21461022d57806392eefe9b14610235578063d4807fb214610248578063f5b490d514610250578063f77c47911461025957600080fd5b806385df51fd146101fa5780638807f36e1461020d5780638a19c8bc146102165780638ae63d6d1461021e5780638b649b941461022457600080fd5b80633aa4add4116100f45780633aa4add4146101ad57806351720b41146101cd578063668abff7146101d6578063681312f5146101df5780636841f253146101f257600080fd5b80630b1573b8146101315780630fe1dfa81461014657806313013e7a146101625780631e6d4c2214610175578063219bc76c14610195575b600080fd5b61014461013f366004610b6f565b610284565b005b61014f60055481565b6040519081526020015b60405180910390f35b610144610170366004610b88565b610361565b61014f610183366004610b6f565b60086020526000908152604090205481565b61019d6103d7565b6040519015158152602001610159565b61014f6101bb366004610b6f565b60009081526007602052604090205490565b61014f60015481565b61014f60065481565b6101446101ed366004610b6f565b6103ea565b61019d6104d2565b61014f610208366004610b6f565b61050e565b61014f60045481565b61014f6105ee565b4361014f565b61014f60025481565b61014f610620565b610144610243366004610bc2565b610659565b6101446106af565b61014f60035481565b60005461026c906001600160a01b031681565b6040516001600160a01b039091168152602001610159565b61028c61082e565b61029981620f4240101590565b6102ff5760405162461bcd60e51b815260206004820152602c60248201527f726f756e64206c6f636b20616d6f756e74206d75737420626520612076616c6960448201526b642070657263656e7461676560a01b60648201526084015b60405180910390fd5b60038190556040517f9f5033568d78ae30f29f01e944f97b2216493bd19d1b46d429673acff3dcd67490610356906020808252600f908201526e1c9bdd5b99131bd8dad05b5bdd5b9d608a1b604082015260600190565b60405180910390a150565b61036961082e565b600082815260086020526040902054156103c55760405162461bcd60e51b815260206004820152601d60248201527f4c4950207570677261646520726f756e6420616c72656164792073657400000060448201526064016102f6565b60009182526008602052604090912055565b60006103e16105ee565b60045414905090565b6103f261082e565b600081116104425760405162461bcd60e51b815260206004820152601860248201527f726f756e64206c656e6774682063616e6e6f742062652030000000000000000060448201526064016102f6565b6002546104695760028190556104566105ee565b600555610461610620565b600655610485565b6104716105ee565b60055561047c610620565b60065560028190555b7f9f5033568d78ae30f29f01e944f97b2216493bd19d1b46d429673acff3dcd674604051610356906020808252600b908201526a0e4deeadcc898cadccee8d60ab1b604082015260600190565b6000806104e3600254600354610914565b6002549091506104f3908261092e565b6105066104fe610620565b435b9061092e565b101591505090565b60004380831061056c5760405162461bcd60e51b815260206004820152602360248201527f63616e206f6e6c79207265747269657665207061737420626c6f636b2068617360448201526268657360e81b60648201526084016102f6565b610100811080610587575061058361010082610bf5565b8310155b6105e85760405162461bcd60e51b815260206004820152602c60248201527f63616e206f6e6c792072657472696576652068617368657320666f72206c617360448201526b742032353620626c6f636b7360a01b60648201526084016102f6565b50504090565b60008061060a6002546106046006546105004390565b9061093a565b60055490915061061a9082610946565b91505090565b6000806106366002546106046006546105004390565b905061061a6106506002548361095290919063ffffffff16565b60065490610946565b61066161095e565b600080546001600160a01b0319166001600160a01b0383169081179091556040519081527f4ff638452bbf33c012645d18ae6f05515ff5f2d1dfb0cece8cbf018c60903f7090602001610356565b6106b76109b8565b60006106c16105ee565b905080600454106107145760405162461bcd60e51b815260206004820152601960248201527f726f756e6420616c726561647920696e697469616c697a65640000000000000060448201526064016102f6565b60048190556000610729610208600143610500565b60008381526007602052604090208190559050610744610a7c565b6001600160a01b031663713f22166040518163ffffffff1660e01b8152600401600060405180830381600087803b15801561077e57600080fd5b505af1158015610792573d6000803e3d6000fd5b5050505061079e610b1e565b6001600160a01b031663ece2064c6040518163ffffffff1660e01b8152600401600060405180830381600087803b1580156107d857600080fd5b505af11580156107ec573d6000803e3d6000fd5b50505050817f22f2fc17c5daf07db2379b3a03a8ef20a183f761097a58fce219c8a14619e7868260405161082291815260200190565b60405180910390a25050565b60008054906101000a90046001600160a01b03166001600160a01b0316638da5cb5b6040518163ffffffff1660e01b815260040160206040518083038186803b15801561087a57600080fd5b505afa15801561088e573d6000803e3d6000fd5b505050506040513d601f19601f820116820180604052508101906108b29190610c0c565b6001600160a01b0316336001600160a01b0316146109125760405162461bcd60e51b815260206004820152601f60248201527f63616c6c6572206d75737420626520436f6e74726f6c6c6572206f776e65720060448201526064016102f6565b565b6000610927620f42406106048585610952565b9392505050565b60006109278284610bf5565b60006109278284610c29565b60006109278284610c4b565b60006109278284610c63565b6000546001600160a01b031633146109125760405162461bcd60e51b815260206004820152601960248201527f63616c6c6572206d75737420626520436f6e74726f6c6c65720000000000000060448201526064016102f6565b60008054906101000a90046001600160a01b03166001600160a01b0316635c975abb6040518163ffffffff1660e01b815260040160206040518083038186803b158015610a0457600080fd5b505afa158015610a18573d6000803e3d6000fd5b505050506040513d601f19601f82011682018060405250810190610a3c9190610c82565b156109125760405162461bcd60e51b815260206004820152601060248201526f1cde5cdd195b481a5cc81c185d5cd95960821b60448201526064016102f6565b60008054604051631c2d8fb360e31b81527f2517d59a36a86548e38734e8ab416f42afff4bca78706a66ad65750dae7f9e3760048201526001600160a01b039091169063e16c7d98906024015b60206040518083038186803b158015610ae157600080fd5b505afa158015610af5573d6000803e3d6000fd5b505050506040513d601f19601f82011682018060405250810190610b199190610c0c565b905090565b60008054604051631c2d8fb360e31b81527f6e58ad548d72b425ea94c15f453bf26caddb061d82b2551db7fdd3cefe0e994060048201526001600160a01b039091169063e16c7d9890602401610ac9565b600060208284031215610b8157600080fd5b5035919050565b60008060408385031215610b9b57600080fd5b50508035926020909101359150565b6001600160a01b0381168114610bbf57600080fd5b50565b600060208284031215610bd457600080fd5b813561092781610baa565b634e487b7160e01b600052601160045260246000fd5b600082821015610c0757610c07610bdf565b500390565b600060208284031215610c1e57600080fd5b815161092781610baa565b600082610c4657634e487b7160e01b600052601260045260246000fd5b500490565b60008219821115610c5e57610c5e610bdf565b500190565b6000816000190483118215151615610c7d57610c7d610bdf565b500290565b600060208284031215610c9457600080fd5b8151801515811461092757600080fdfea264697066735822122052739efdff1d04af57f8b84674aad0b40361c990016642bc288e22f4bd7e64f264736f6c63430008090033",
  "linkReferences": {},
  "deployedLinkReferences": {}
}