{
  "_format": "hh-sol-artifact-1",
  "contractName": "TicketBroker",
  "sourceName": "contracts/pm/TicketBroker.sol",
  "abi": [
    {
      "inputs": [
        {
          "internalType": "address",
          "name": "_controller",
          "type": "address"
        }
      ],
      "stateMutability": "nonpayable",
      "type": "constructor"
    },
    {
      "anonymous": false,
      "inputs": [
        {
          "indexed": true,
          "internalType": "address",
          "name": "sender",
          "type": "address"
        },
        {
          "indexed": false,
          "internalType": "uint256",
          "name": "amount",
          "type": "uint256"
        }
      ],
      "name": "DepositFunded",
      "type": "event"
    },
    {
      "anonymous": false,
      "inputs": [
        {
          "indexed": false,
          "internalType": "string",
          "name": "param",
          "type": "string"
        }
      ],
      "name": "ParameterUpdate",
      "type": "event"
    },
    {
      "anonymous": false,
      "inputs": [
        {
          "indexed": true,
          "internalType": "address",
          "name": "reserveHolder",
          "type": "address"
        },
        {
          "indexed": false,
          "internalType": "address",
          "name": "claimant",
          "type": "address"
        },
        {
          "indexed": false,
          "internalType": "uint256",
          "name": "amount",
          "type": "uint256"
        }
      ],
      "name": "ReserveClaimed",
      "type": "event"
    },
    {
      "anonymous": false,
      "inputs": [
        {
          "indexed": true,
          "internalType": "address",
          "name": "reserveHolder",
          "type": "address"
        },
        {
          "indexed": false,
          "internalType": "uint256",
          "name": "amount",
          "type": "uint256"
        }
      ],
      "name": "ReserveFunded",
      "type": "event"
    },
    {
      "anonymous": false,
      "inputs": [
        {
          "indexed": false,
          "internalType": "address",
          "name": "controller",
          "type": "address"
        }
      ],
      "name": "SetController",
      "type": "event"
    },
    {
      "anonymous": false,
      "inputs": [
        {
          "indexed": true,
          "internalType": "address",
          "name": "sender",
          "type": "address"
        },
        {
          "indexed": false,
          "internalType": "uint256",
          "name": "startRound",
          "type": "uint256"
        },
        {
          "indexed": false,
          "internalType": "uint256",
          "name": "endRound",
          "type": "uint256"
        }
      ],
      "name": "Unlock",
      "type": "event"
    },
    {
      "anonymous": false,
      "inputs": [
        {
          "indexed": true,
          "internalType": "address",
          "name": "sender",
          "type": "address"
        }
      ],
      "name": "UnlockCancelled",
      "type": "event"
    },
    {
      "anonymous": false,
      "inputs": [
        {
          "indexed": true,
          "internalType": "address",
          "name": "sender",
          "type": "address"
        },
        {
          "indexed": true,
          "internalType": "address",
          "name": "recipient",
          "type": "address"
        },
        {
          "indexed": false,
          "internalType": "uint256",
          "name": "faceValue",
          "type": "uint256"
        },
        {
          "indexed": false,
          "internalType": "uint256",
          "name": "winProb",
          "type": "uint256"
        },
        {
          "indexed": false,
          "internalType": "uint256",
          "name": "senderNonce",
          "type": "uint256"
        },
        {
          "indexed": false,
          "internalType": "uint256",
          "name": "recipientRand",
          "type": "uint256"
        },
        {
          "indexed": false,
          "internalType": "bytes",
          "name": "auxData",
          "type": "bytes"
        }
      ],
      "name": "WinningTicketRedeemed",
      "type": "event"
    },
    {
      "anonymous": false,
      "inputs": [
        {
          "indexed": true,
          "internalType": "address",
          "name": "sender",
          "type": "address"
        },
        {
          "indexed": true,
          "internalType": "address",
          "name": "recipient",
          "type": "address"
        },
        {
          "indexed": false,
          "internalType": "uint256",
          "name": "amount",
          "type": "uint256"
        }
      ],
      "name": "WinningTicketTransfer",
      "type": "event"
    },
    {
      "anonymous": false,
      "inputs": [
        {
          "indexed": true,
          "internalType": "address",
          "name": "sender",
          "type": "address"
        },
        {
          "indexed": false,
          "internalType": "uint256",
          "name": "deposit",
          "type": "uint256"
        },
        {
          "indexed": false,
          "internalType": "uint256",
          "name": "reserve",
          "type": "uint256"
        }
      ],
      "name": "Withdrawal",
      "type": "event"
    },
    {
      "inputs": [
        {
          "components": [
            {
              "internalType": "address",
              "name": "recipient",
              "type": "address"
            },
            {
              "internalType": "address",
              "name": "sender",
              "type": "address"
            },
            {
              "internalType": "uint256",
              "name": "faceValue",
              "type": "uint256"
            },
            {
              "internalType": "uint256",
              "name": "winProb",
              "type": "uint256"
            },
            {
              "internalType": "uint256",
              "name": "senderNonce",
              "type": "uint256"
            },
            {
              "internalType": "bytes32",
              "name": "recipientRandHash",
              "type": "bytes32"
            },
            {
              "internalType": "bytes",
              "name": "auxData",
              "type": "bytes"
            }
          ],
          "internalType": "struct MTicketBrokerCore.Ticket[]",
          "name": "_tickets",
          "type": "tuple[]"
        },
        {
          "internalType": "bytes[]",
          "name": "_sigs",
          "type": "bytes[]"
        },
        {
          "internalType": "uint256[]",
          "name": "_recipientRands",
          "type": "uint256[]"
        }
      ],
      "name": "batchRedeemWinningTickets",
      "outputs": [],
      "stateMutability": "nonpayable",
      "type": "function"
    },
    {
      "inputs": [],
      "name": "cancelUnlock",
      "outputs": [],
      "stateMutability": "nonpayable",
      "type": "function"
    },
    {
      "inputs": [
        {
          "internalType": "address",
          "name": "_reserveHolder",
          "type": "address"
        },
        {
          "internalType": "address",
          "name": "_claimant",
          "type": "address"
        }
      ],
      "name": "claimableReserve",
      "outputs": [
        {
          "internalType": "uint256",
          "name": "",
          "type": "uint256"
        }
      ],
      "stateMutability": "view",
      "type": "function"
    },
    {
      "inputs": [
        {
          "internalType": "address",
          "name": "_reserveHolder",
          "type": "address"
        },
        {
          "internalType": "address",
          "name": "_claimant",
          "type": "address"
        }
      ],
      "name": "claimedReserve",
      "outputs": [
        {
          "internalType": "uint256",
          "name": "",
          "type": "uint256"
        }
      ],
      "stateMutability": "view",
      "type": "function"
    },
    {
      "inputs": [],
      "name": "controller",
      "outputs": [
        {
          "internalType": "contract IController",
          "name": "",
          "type": "address"
        }
      ],
      "stateMutability": "view",
      "type": "function"
    },
    {
      "inputs": [],
      "name": "fundDeposit",
      "outputs": [],
      "stateMutability": "payable",
      "type": "function"
    },
    {
      "inputs": [
        {
          "internalType": "uint256",
          "name": "_depositAmount",
          "type": "uint256"
        },
        {
          "internalType": "uint256",
          "name": "_reserveAmount",
          "type": "uint256"
        }
      ],
      "name": "fundDepositAndReserve",
      "outputs": [],
      "stateMutability": "payable",
      "type": "function"
    },
    {
      "inputs": [
        {
          "internalType": "address",
          "name": "_addr",
          "type": "address"
        },
        {
          "internalType": "uint256",
          "name": "_depositAmount",
          "type": "uint256"
        },
        {
          "internalType": "uint256",
          "name": "_reserveAmount",
          "type": "uint256"
        }
      ],
      "name": "fundDepositAndReserveFor",
      "outputs": [],
      "stateMutability": "payable",
      "type": "function"
    },
    {
      "inputs": [],
      "name": "fundReserve",
      "outputs": [],
      "stateMutability": "payable",
      "type": "function"
    },
    {
      "inputs": [
        {
          "internalType": "address",
          "name": "_reserveHolder",
          "type": "address"
        }
      ],
      "name": "getReserveInfo",
      "outputs": [
        {
          "components": [
            {
              "internalType": "uint256",
              "name": "fundsRemaining",
              "type": "uint256"
            },
            {
              "internalType": "uint256",
              "name": "claimedInCurrentRound",
              "type": "uint256"
            }
          ],
          "internalType": "struct MReserve.ReserveInfo",
          "name": "info",
          "type": "tuple"
        }
      ],
      "stateMutability": "view",
      "type": "function"
    },
    {
      "inputs": [
        {
          "internalType": "address",
          "name": "_sender",
          "type": "address"
        }
      ],
      "name": "getSenderInfo",
      "outputs": [
        {
          "components": [
            {
              "internalType": "uint256",
              "name": "deposit",
              "type": "uint256"
            },
            {
              "internalType": "uint256",
              "name": "withdrawRound",
              "type": "uint256"
            }
          ],
          "internalType": "struct MixinTicketBrokerCore.Sender",
          "name": "sender",
          "type": "tuple"
        },
        {
          "components": [
            {
              "internalType": "uint256",
              "name": "fundsRemaining",
              "type": "uint256"
            },
            {
              "internalType": "uint256",
              "name": "claimedInCurrentRound",
              "type": "uint256"
            }
          ],
          "internalType": "struct MReserve.ReserveInfo",
          "name": "reserve",
          "type": "tuple"
        }
      ],
      "stateMutability": "view",
      "type": "function"
    },
    {
      "inputs": [
        {
          "components": [
            {
              "internalType": "address",
              "name": "recipient",
              "type": "address"
            },
            {
              "internalType": "address",
              "name": "sender",
              "type": "address"
            },
            {
              "internalType": "uint256",
              "name": "faceValue",
              "type": "uint256"
            },
            {
              "internalType": "uint256",
              "name": "winProb",
              "type": "uint256"
            },
            {
              "internalType": "uint256",
              "name": "senderNonce",
              "type": "uint256"
            },
            {
              "internalType": "bytes32",
              "name": "recipientRandHash",
              "type": "bytes32"
            },
            {
              "internalType": "bytes",
              "name": "auxData",
              "type": "bytes"
            }
          ],
          "internalType": "struct MTicketBrokerCore.Ticket",
          "name": "_ticket",
          "type": "tuple"
        }
      ],
      "name": "getTicketHash",
      "outputs": [
        {
          "internalType": "bytes32",
          "name": "",
          "type": "bytes32"
        }
      ],
      "stateMutability": "pure",
      "type": "function"
    },
    {
      "inputs": [
        {
          "internalType": "address",
          "name": "_sender",
          "type": "address"
        }
      ],
      "name": "isUnlockInProgress",
      "outputs": [
        {
          "internalType": "bool",
          "name": "",
          "type": "bool"
        }
      ],
      "stateMutability": "view",
      "type": "function"
    },
    {
      "inputs": [
        {
          "components": [
            {
              "internalType": "address",
              "name": "recipient",
              "type": "address"
            },
            {
              "internalType": "address",
              "name": "sender",
              "type": "address"
            },
            {
              "internalType": "uint256",
              "name": "faceValue",
              "type": "uint256"
            },
            {
              "internalType": "uint256",
              "name": "winProb",
              "type": "uint256"
            },
            {
              "internalType": "uint256",
              "name": "senderNonce",
              "type": "uint256"
            },
            {
              "internalType": "bytes32",
              "name": "recipientRandHash",
              "type": "bytes32"
            },
            {
              "internalType": "bytes",
              "name": "auxData",
              "type": "bytes"
            }
          ],
          "internalType": "struct MTicketBrokerCore.Ticket",
          "name": "_ticket",
          "type": "tuple"
        },
        {
          "internalType": "bytes",
          "name": "_sig",
          "type": "bytes"
        },
        {
          "internalType": "uint256",
          "name": "_recipientRand",
          "type": "uint256"
        }
      ],
      "name": "redeemWinningTicket",
      "outputs": [],
      "stateMutability": "nonpayable",
      "type": "function"
    },
    {
      "inputs": [
        {
          "internalType": "address",
          "name": "_controller",
          "type": "address"
        }
      ],
      "name": "setController",
      "outputs": [],
      "stateMutability": "nonpayable",
      "type": "function"
    },
    {
      "inputs": [
        {
          "internalType": "uint256",
          "name": "_ticketValidityPeriod",
          "type": "uint256"
        }
      ],
      "name": "setTicketValidityPeriod",
      "outputs": [],
      "stateMutability": "nonpayable",
      "type": "function"
    },
    {
      "inputs": [
        {
          "internalType": "uint256",
          "name": "_unlockPeriod",
          "type": "uint256"
        }
      ],
      "name": "setUnlockPeriod",
      "outputs": [],
      "stateMutability": "nonpayable",
      "type": "function"
    },
    {
      "inputs": [],
      "name": "targetContractId",
      "outputs": [
        {
          "internalType": "bytes32",
          "name": "",
          "type": "bytes32"
        }
      ],
      "stateMutability": "view",
      "type": "function"
    },
    {
      "inputs": [],
      "name": "ticketValidityPeriod",
      "outputs": [
        {
          "internalType": "uint256",
          "name": "",
          "type": "uint256"
        }
      ],
      "stateMutability": "view",
      "type": "function"
    },
    {
      "inputs": [],
      "name": "unlock",
      "outputs": [],
      "stateMutability": "nonpayable",
      "type": "function"
    },
    {
      "inputs": [],
      "name": "unlockPeriod",
      "outputs": [
        {
          "internalType": "uint256",
          "name": "",
          "type": "uint256"
        }
      ],
      "stateMutability": "view",
      "type": "function"
    },
    {
      "inputs": [
        {
          "internalType": "bytes32",
          "name": "",
          "type": "bytes32"
        }
      ],
      "name": "usedTickets",
      "outputs": [
        {
          "internalType": "bool",
          "name": "",
          "type": "bool"
        }
      ],
      "stateMutability": "view",
      "type": "function"
    },
    {
      "inputs": [],
      "name": "withdraw",
      "outputs": [],
      "stateMutability": "nonpayable",
      "type": "function"
    }
  ],
  "bytecode": "0x60806040523480156200001157600080fd5b5060405162002f0338038062002f0383398101604081905262000034916200005a565b600080546001600160a01b0319166001600160a01b03929092169190911790556200008c565b6000602082840312156200006d57600080fd5b81516001600160a01b03811681146200008557600080fd5b9392505050565b612e67806200009c6000396000f3fe6080604052600436106101405760003560e01c806381779f38116100b6578063c2c4c2c81161006f578063c2c4c2c814610329578063c92978081461033e578063d01b808e1461035e578063e1a589da1461037e578063ec8b3cb6146103ac578063f77c4791146103cc57600080fd5b806381779f381461028b578063856a2cf8146102ab57806392eefe9b146102c1578063989f789c146102e1578063a69df4b5146102f4578063b03fa8641461030957600080fd5b8063511f407311610108578063511f4073146101f557806351720b411461020857806359a515ba1461021e5780635b6333eb1461024e5780636caa736b1461027b5780636f9c3c8f1461028357600080fd5b8063121cdcc21461014557806320d3a0b41461017a5780633ccfd60b1461019e5780633d0ddf84146101b55780634ac826da146101d5575b600080fd5b34801561015157600080fd5b50610165610160366004612613565b610404565b60405190151581526020015b60405180910390f35b34801561018657600080fd5b5061019060045481565b604051908152602001610171565b3480156101aa57600080fd5b506101b3610440565b005b3480156101c157600080fd5b506101b36101d0366004612630565b6105c6565b3480156101e157600080fd5b506101906101f0366004612649565b61062d565b6101b3610203366004612682565b6106ef565b34801561021457600080fd5b5061019060015481565b34801561022a57600080fd5b50610165610239366004612630565b60056020526000908152604090205460ff1681565b34801561025a57600080fd5b5061026e610269366004612613565b6106fe565b60405161017191906126a4565b6101b36107cc565b6101b3610878565b34801561029757600080fd5b506101906102a6366004612649565b6108e9565b3480156102b757600080fd5b5061019060065481565b3480156102cd57600080fd5b506101b36102dc366004612613565b610afe565b6101b36102ef3660046126bb565b610b54565b34801561030057600080fd5b506101b3610d0f565b34801561031557600080fd5b50610190610324366004612862565b610ea3565b34801561033557600080fd5b506101b3610ef5565b34801561034a57600080fd5b506101b3610359366004612630565b610f1b565b34801561036a57600080fd5b506101b36103793660046129ae565b610fe3565b34801561038a57600080fd5b5061039e610399366004612613565b61112a565b604051610171929190612aa6565b3480156103b857600080fd5b506101b36103c7366004612acc565b61118b565b3480156103d857600080fd5b506000546103ec906001600160a01b031681565b6040516001600160a01b039091168152602001610171565b6001600160a01b0381166000908152600360209081526040808320815180830190925280548252600101549181018290529015155b9392505050565b61044861149d565b33600090815260036020908152604080832080546002909352922054811515806104725750600081115b6104975760405162461bcd60e51b815260040161048e90612b39565b60405180910390fd5b6040805180820190915283548152600184015460209091018190526104fe5760405162461bcd60e51b815260206004820152601d60248201527f6e6f20756e6c6f636b207265717565737420696e2070726f6772657373000000604482015260640161048e565b60408051808201909152835481526001840154602082015261051f90611563565b156105605760405162461bcd60e51b81526020600482015260116024820152701858d8dbdd5b9d081a5cc81b1bd8dad959607a1b604482015260640161048e565b6000808455338152600260205260408120556105853361058084846115f7565b611603565b604080518381526020810183905233917fdf273cb619d95419a9cd0ec88123a0538c85064229baa6363788f743fff90deb91015b60405180910390a2505050565b6105ce611673565b60048190556040517f9f5033568d78ae30f29f01e944f97b2216493bd19d1b46d429673acff3dcd67490610622906020808252600c908201526b1d5b9b1bd8dad4195c9a5bd960a21b604082015260600190565b60405180910390a150565b6001600160a01b03821660009081526002602052604081208161064e611757565b6001600160a01b0316638a19c8bc6040518163ffffffff1660e01b815260040160206040518083038186803b15801561068657600080fd5b505afa15801561069a573d6000803e3d6000fd5b505050506040513d601f19601f820116820180604052508101906106be9190612b7c565b60009081526002909201602090815260408084206001600160a01b0387168552909152909120549150505b92915050565b6106fa338383610b54565b5050565b604080518082018252600080825260208083018290526001600160a01b038516808352600280835294832080548552908352939052909160010190610741611757565b6001600160a01b0316638a19c8bc6040518163ffffffff1660e01b815260040160206040518083038186803b15801561077957600080fd5b505afa15801561078d573d6000803e3d6000fd5b505050506040513d601f19601f820116820180604052508101906107b19190612b7c565b81526020808201929092526040016000205490820152919050565b6107d461149d565b33600081815260036020526040902080543491906107f290836115f7565b8155336001600160a01b038416148015610825575060408051808201909152815481526001820154602090910181905215155b156108345761083481846117f9565b61083d3461189e565b826001600160a01b03167f5159e237d952190e68d5215430f305831be7c9c8776d1377c76679ae4773413f836040516105b991815260200190565b61088061149d565b336000818152600360205260409020349061089b8383611919565b336001600160a01b0384161480156108cc575060408051808201909152815481526001820154602090910181905215155b156108db576108db81846117f9565b6108e43461189e565b505050565b6001600160a01b03821660009081526002602052604081208161090a611757565b6001600160a01b0316638a19c8bc6040518163ffffffff1660e01b815260040160206040518083038186803b15801561094257600080fd5b505afa158015610956573d6000803e3d6000fd5b505050506040513d601f19601f8201168201806040525081019061097a9190612b7c565b905061098461198b565b60405163022008dd60e21b81526001600160a01b038681166004830152919091169063088023749060240160206040518083038186803b1580156109c757600080fd5b505afa1580156109db573d6000803e3d6000fd5b505050506040513d601f19601f820116820180604052508101906109ff9190612b95565b610a0e576000925050506106e9565b6000610a1861198b565b6001600160a01b0316632a4e0d556040518163ffffffff1660e01b815260040160206040518083038186803b158015610a5057600080fd5b505afa158015610a64573d6000803e3d6000fd5b505050506040513d601f19601f82011682018060405250810190610a889190612b7c565b905080610a9b57600093505050506106e9565b60008281526001840160205260408120548454610ab7916115f7565b600084815260028601602090815260408083206001600160a01b038b168452909152902054909150610af390610aed83856119dc565b906119e8565b979650505050505050565b610b066119f4565b600080546001600160a01b0319166001600160a01b0383169081179091556040519081527f4ff638452bbf33c012645d18ae6f05515ff5f2d1dfb0cece8cbf018c60903f7090602001610622565b610b5c61149d565b8181610b6882826115f7565b3414610be65760405162461bcd60e51b815260206004820152604160248201527f6d73672e76616c756520646f6573206e6f7420657175616c2073756d206f662060448201527f6465706f73697420616d6f756e7420616e64207265736572766520616d6f756e6064820152601d60fa1b608482015260a40161048e565b6001600160a01b0385166000908152600360205260409020805486918691610c0e90836115f7565b8155336001600160a01b038416148015610c41575060408051808201909152815481526001820154602090910181905215155b15610c5057610c5081846117f9565b6001600160a01b038816600090815260036020526040902088908790610c768383611919565b336001600160a01b038416148015610ca7575060408051808201909152815481526001820154602090910181905215155b15610cb657610cb681846117f9565b610cbf3461189e565b505050826001600160a01b03167f5159e237d952190e68d5215430f305831be7c9c8776d1377c76679ae4773413f83604051610cfd91815260200190565b60405180910390a25050505050505050565b610d1761149d565b3360009081526003602052604090208054151580610d42575033600090815260026020526040812054115b610d5e5760405162461bcd60e51b815260040161048e90612b39565b60408051808201909152815481526001820154602090910181905215610dc65760405162461bcd60e51b815260206004820152601860248201527f756e6c6f636b20616c726561647920696e697469617465640000000000000000604482015260640161048e565b6000610dd0611757565b6001600160a01b0316638a19c8bc6040518163ffffffff1660e01b815260040160206040518083038186803b158015610e0857600080fd5b505afa158015610e1c573d6000803e3d6000fd5b505050506040513d601f19601f82011682018060405250810190610e409190612b7c565b9050610e57600454826115f790919063ffffffff16565b6001830181905560405133917ff7870c5b224cbc19873599e46ccfc7103934650509b1af0c3ce90138377c200491610e9791858252602082015260400190565b60405180910390a25050565b80516020808301516040808501516060860151608087015160a088015160c08901519451600098610ed8989097969101612be3565b604051602081830303815290604052805190602001209050919050565b610efd61149d565b33600081815260036020526040902090610f189082906117f9565b50565b610f23611673565b60008111610f875760405162461bcd60e51b815260206004820152602b60248201527f7469636b657456616c6964697479506572696f64206d7573742062652067726560448201526a061746572207468616e20360ac1b606482015260840161048e565b60068190556040517f9f5033568d78ae30f29f01e944f97b2216493bd19d1b46d429673acff3dcd67490610622906020808252601490820152731d1a58dad95d15985b1a591a5d1e54195c9a5bd960621b604082015260600190565b610feb61149d565b610ff3611757565b6001600160a01b031663219bc76c6040518163ffffffff1660e01b815260040160206040518083038186803b15801561102b57600080fd5b505afa15801561103f573d6000803e3d6000fd5b505050506040513d601f19601f820116820180604052508101906110639190612b95565b6110af5760405162461bcd60e51b815260206004820181905260248201527f63757272656e7420726f756e64206973206e6f7420696e697469616c697a6564604482015260640161048e565b60005b8351811015611124576111118482815181106110d0576110d0612c45565b60200260200101518483815181106110ea576110ea612c45565b602002602001015184848151811061110457611104612c45565b6020026020010151611a4e565b508061111c81612c71565b9150506110b2565b50505050565b60408051808201825260008082526020918201819052825180840184528181528083018290526001600160a01b038516825260038352908390208351808501909452805484526001015491830191909152611184836106fe565b9050915091565b61119361149d565b61119b611757565b6001600160a01b031663219bc76c6040518163ffffffff1660e01b815260040160206040518083038186803b1580156111d357600080fd5b505afa1580156111e7573d6000803e3d6000fd5b505050506040513d601f19601f8201168201806040525081019061120b9190612b95565b6112575760405162461bcd60e51b815260206004820181905260248201527f63757272656e7420726f756e64206973206e6f7420696e697469616c697a6564604482015260640161048e565b600061126284610ea3565b905061127084828585611aef565b6020808501516001600160a01b03166000908152600382526040908190208151808301909252805482526001810154928201929092526112af90611563565b6112f05760405162461bcd60e51b81526020600482015260126024820152711cd95b99195c881a5cc81d5b9b1bd8dad95960721b604482015260640161048e565b80541515806113215750600061131f86602001516001600160a01b031660009081526002602052604090205490565b115b61133d5760405162461bcd60e51b815260040161048e90612b39565b600082815260056020526040808220805460ff1916600117905582549087015111156113a65761139b6113938760200151886000015161138e86600001548b604001516119e890919063ffffffff16565b611d3e565b8354906115f7565b6000835590506113bb565b50604085015181546113b890826119e8565b82555b801561142a576113d48660000151828860c00151611ed6565b85600001516001600160a01b031686602001516001600160a01b03167f8b87351a208c06e3ceee59d80725fd77a23b4129e1b51ca231fc89b40712649c8360405161142191815260200190565b60405180910390a35b85600001516001600160a01b031686602001516001600160a01b03167fc389eb51ed006dbf2528507f010efdf5225ea596e1e1741d74f550dab1925ee7886040015189606001518a60800151898c60c0015160405161148d959493929190612cb8565b60405180910390a3505050505050565b60008054906101000a90046001600160a01b03166001600160a01b0316635c975abb6040518163ffffffff1660e01b815260040160206040518083038186803b1580156114e957600080fd5b505afa1580156114fd573d6000803e3d6000fd5b505050506040513d601f19601f820116820180604052508101906115219190612b95565b156115615760405162461bcd60e51b815260206004820152601060248201526f1cde5cdd195b481a5cc81c185d5cd95960821b604482015260640161048e565b565b60008160200151600014806106e957508160200151611580611757565b6001600160a01b0316638a19c8bc6040518163ffffffff1660e01b815260040160206040518083038186803b1580156115b857600080fd5b505afa1580156115cc573d6000803e3d6000fd5b505050506040513d601f19601f820116820180604052508101906115f09190612b7c565b1092915050565b60006104398284612ce3565b61160b611f5d565b6040516320283da960e01b81526001600160a01b0384811660048301526024820184905291909116906320283da990604401600060405180830381600087803b15801561165757600080fd5b505af115801561166b573d6000803e3d6000fd5b505050505050565b60008054906101000a90046001600160a01b03166001600160a01b0316638da5cb5b6040518163ffffffff1660e01b815260040160206040518083038186803b1580156116bf57600080fd5b505afa1580156116d3573d6000803e3d6000fd5b505050506040513d601f19601f820116820180604052508101906116f79190612cfb565b6001600160a01b0316336001600160a01b0316146115615760405162461bcd60e51b815260206004820152601f60248201527f63616c6c6572206d75737420626520436f6e74726f6c6c6572206f776e657200604482015260640161048e565b60008054604051631c2d8fb360e31b81527fe8438ea868df48e3fc21f2f087b993c9b1837dc0f6135064161ce7d7a1701fe860048201526001600160a01b039091169063e16c7d98906024015b60206040518083038186803b1580156117bc57600080fd5b505afa1580156117d0573d6000803e3d6000fd5b505050506040513d601f19601f820116820180604052508101906117f49190612cfb565b905090565b6040805180820190915282548152600183015460209091018190526118605760405162461bcd60e51b815260206004820152601d60248201527f6e6f20756e6c6f636b207265717565737420696e2070726f6772657373000000604482015260640161048e565b6000600183018190556040516001600160a01b038316917ffa044b7b93a40365dc68049797c2eb06918523d694e5d56e406cac3eb35578e591a25050565b6118a6611f5d565b6001600160a01b031663f6326fb3826040518263ffffffff1660e01b81526004016020604051808303818588803b1580156118e057600080fd5b505af11580156118f4573d6000803e3d6000fd5b50505050506040513d601f19601f820116820180604052508101906106fa9190612b95565b6001600160a01b03821660009081526002602052604090205461193c90826115f7565b6001600160a01b038316600081815260026020526040908190209290925590517fb52b99b9e83551fcbd069b559cc3e823e2a1a3bad8ece46561ea77524394c85090610e979084815260200190565b60008054604051631c2d8fb360e31b81527f2517d59a36a86548e38734e8ab416f42afff4bca78706a66ad65750dae7f9e3760048201526001600160a01b039091169063e16c7d98906024016117a4565b60006104398284612d18565b60006104398284612d3a565b6000546001600160a01b031633146115615760405162461bcd60e51b815260206004820152601960248201527f63616c6c6572206d75737420626520436f6e74726f6c6c657200000000000000604482015260640161048e565b600080848484604051602401611a6693929190612d51565b60408051601f198184030181529181526020820180516001600160e01b03166376459e5b60e11b179052519091503090611aa1908390612ddd565b6000604051808303816000865af19150503d8060008114611ade576040519150601f19603f3d011682016040523d82523d6000602084013e611ae3565b606091505b50909695505050505050565b83516001600160a01b0316611b465760405162461bcd60e51b815260206004820181905260248201527f7469636b657420726563697069656e74206973206e756c6c2061646472657373604482015260640161048e565b60208401516001600160a01b0316611ba05760405162461bcd60e51b815260206004820152601d60248201527f7469636b65742073656e646572206973206e756c6c2061646472657373000000604482015260640161048e565b611bad8460c00151611fae565b60a08401516040805160208101849052016040516020818303038152906040528051906020012014611c385760405162461bcd60e51b815260206004820152602e60248201527f726563697069656e7452616e6420646f6573206e6f74206d617463682072656360448201526d0d2e0d2cadce8a4c2dcc890c2e6d60931b606482015260840161048e565b60008381526005602052604090205460ff1615611c885760405162461bcd60e51b815260206004820152600e60248201526d1d1a58dad95d081a5cc81d5cd95960921b604482015260640161048e565b611c97846020015183856121fb565b611cee5760405162461bcd60e51b815260206004820152602260248201527f696e76616c6964207369676e6174757265206f766572207469636b65742068616044820152610e6d60f31b606482015260840161048e565b611cfd828286606001516122ba565b6111245760405162461bcd60e51b81526020600482015260126024820152713a34b1b5b2ba103234b2103737ba103bb4b760711b604482015260640161048e565b600080611d4b85856108e9565b90506000818411611d5c5783611d5e565b815b90508015611ecd576000611d70611757565b6001600160a01b0316638a19c8bc6040518163ffffffff1660e01b815260040160206040518083038186803b158015611da857600080fd5b505afa158015611dbc573d6000803e3d6000fd5b505050506040513d601f19601f82011682018060405250810190611de09190612b7c565b6001600160a01b0388166000908152600260209081526040808320848452600181019092529091205491925090611e1790846115f7565b60008381526001830160209081526040808320939093556002840181528282206001600160a01b038b16835290522054611e5190846115f7565b600083815260028301602090815260408083206001600160a01b038c1684529091529020558054611e8290846119e8565b8155604080516001600160a01b038981168252602082018690528a16917f5c2b394723f408a40a60335e24b71829642e35f350cebe2036a96a66e895ea98910160405180910390a250505b95945050505050565b6000611ee1826122f1565b509050611eec61198b565b604051630ebad44b60e21b81526001600160a01b03868116600483015260248201869052604482018490529190911690633aeb512c90606401600060405180830381600087803b158015611f3f57600080fd5b505af1158015611f53573d6000803e3d6000fd5b5050505050505050565b60008054604051631c2d8fb360e31b81527f6e58ad548d72b425ea94c15f453bf26caddb061d82b2551db7fdd3cefe0e994060048201526001600160a01b039091169063e16c7d98906024016117a4565b600080611fba836122f1565b915091506000611fc8611757565b6001600160a01b0316633aa4add4846040518263ffffffff1660e01b8152600401611ff591815260200190565b60206040518083038186803b15801561200d57600080fd5b505afa158015612021573d6000803e3d6000fd5b505050506040513d601f19601f820116820180604052508101906120459190612b7c565b9050806120ac5760405162461bcd60e51b815260206004820152602f60248201527f7469636b6574206372656174696f6e526f756e6420646f6573206e6f7420686160448201526e0ecca40c240c4d8dec6d640d0c2e6d608b1b606482015260840161048e565b8082146121215760405162461bcd60e51b815260206004820152603760248201527f7469636b6574206372656174696f6e526f756e64426c6f636b4861736820696e60448201527f76616c696420666f72206372656174696f6e526f756e64000000000000000000606482015260840161048e565b600061212b611757565b6001600160a01b0316638a19c8bc6040518163ffffffff1660e01b815260040160206040518083038186803b15801561216357600080fd5b505afa158015612177573d6000803e3d6000fd5b505050506040513d601f19601f8201168201806040525081019061219b9190612b7c565b9050806121b3600654866115f790919063ffffffff16565b116121f45760405162461bcd60e51b81526020600482015260116024820152701d1a58dad95d081a5cc8195e1c1a5c9959607a1b604482015260640161048e565b5050505050565b6000825160411461224e5760405162461bcd60e51b815260206004820152601860248201527f494e56414c49445f5349474e41545552455f4c454e4754480000000000000000604482015260640161048e565b7f19457468657265756d205369676e6564204d6573736167653a0a3332000000006000908152601c839052603c81206122879085612372565b90506001600160a01b03811615801590611ecd5750806001600160a01b0316856001600160a01b03161495945050505050565b60008184846040516020016122d0929190612df9565b60408051601f19818403018152919052805160209091012010949350505050565b60008082516040146123615760405162461bcd60e51b815260206004820152603360248201527f696e76616c6964206c656e67746820666f72207469636b657420617578446174604482015272613a206d75737420626520363420627974657360681b606482015260840161048e565b505060208101516040909101519091565b60008060006123818585612396565b9150915061238e816123dc565b509392505050565b6000808251604114156123cd5760208301516040840151606085015160001a6123c18782858561252a565b945094505050506123d5565b506000905060025b9250929050565b60008160048111156123f0576123f0612e1b565b14156123f95750565b600181600481111561240d5761240d612e1b565b141561245b5760405162461bcd60e51b815260206004820152601860248201527f45434453413a20696e76616c6964207369676e61747572650000000000000000604482015260640161048e565b600281600481111561246f5761246f612e1b565b14156124bd5760405162461bcd60e51b815260206004820152601f60248201527f45434453413a20696e76616c6964207369676e6174757265206c656e67746800604482015260640161048e565b60038160048111156124d1576124d1612e1b565b1415610f185760405162461bcd60e51b815260206004820152602260248201527f45434453413a20696e76616c6964207369676e6174757265202773272076616c604482015261756560f01b606482015260840161048e565b6000807f7fffffffffffffffffffffffffffffff5d576e7357a4501ddfe92f46681b20a083111561256157506000905060036125e5565b6040805160008082526020820180845289905260ff881692820192909252606081018690526080810185905260019060a0016020604051602081039080840390855afa1580156125b5573d6000803e3d6000fd5b5050604051601f1901519150506001600160a01b0381166125de576000600192509250506125e5565b9150600090505b94509492505050565b6001600160a01b0381168114610f1857600080fd5b803561260e816125ee565b919050565b60006020828403121561262557600080fd5b8135610439816125ee565b60006020828403121561264257600080fd5b5035919050565b6000806040838503121561265c57600080fd5b8235612667816125ee565b91506020830135612677816125ee565b809150509250929050565b6000806040838503121561269557600080fd5b50508035926020909101359150565b8151815260208083015190820152604081016106e9565b6000806000606084860312156126d057600080fd5b83356126db816125ee565b95602085013595506040909401359392505050565b634e487b7160e01b600052604160045260246000fd5b60405160e0810167ffffffffffffffff81118282101715612729576127296126f0565b60405290565b604051601f8201601f1916810167ffffffffffffffff81118282101715612758576127586126f0565b604052919050565b600082601f83011261277157600080fd5b813567ffffffffffffffff81111561278b5761278b6126f0565b61279e601f8201601f191660200161272f565b8181528460208386010111156127b357600080fd5b816020850160208301376000918101602001919091529392505050565b600060e082840312156127e257600080fd5b6127ea612706565b90506127f582612603565b815261280360208301612603565b602082015260408201356040820152606082013560608201526080820135608082015260a082013560a082015260c082013567ffffffffffffffff81111561284a57600080fd5b61285684828501612760565b60c08301525092915050565b60006020828403121561287457600080fd5b813567ffffffffffffffff81111561288b57600080fd5b612897848285016127d0565b949350505050565b600067ffffffffffffffff8211156128b9576128b96126f0565b5060051b60200190565b600082601f8301126128d457600080fd5b813560206128e96128e48361289f565b61272f565b82815260059290921b8401810191818101908684111561290857600080fd5b8286015b8481101561294857803567ffffffffffffffff81111561292c5760008081fd5b61293a8986838b0101612760565b84525091830191830161290c565b509695505050505050565b600082601f83011261296457600080fd5b813560206129746128e48361289f565b82815260059290921b8401810191818101908684111561299357600080fd5b8286015b848110156129485780358352918301918301612997565b6000806000606084860312156129c357600080fd5b833567ffffffffffffffff808211156129db57600080fd5b818601915086601f8301126129ef57600080fd5b813560206129ff6128e48361289f565b82815260059290921b8401810191818101908a841115612a1e57600080fd5b8286015b84811015612a5657803586811115612a3a5760008081fd5b612a488d86838b01016127d0565b845250918301918301612a22565b5097505087013592505080821115612a6d57600080fd5b612a79878388016128c3565b93506040860135915080821115612a8f57600080fd5b50612a9c86828701612953565b9150509250925092565b825181526020808401518183015282516040830152820151606082015260808101610439565b600080600060608486031215612ae157600080fd5b833567ffffffffffffffff80821115612af957600080fd5b612b05878388016127d0565b94506020860135915080821115612b1b57600080fd5b50612b2886828701612760565b925050604084013590509250925092565b60208082526023908201527f73656e646572206465706f73697420616e64207265736572766520617265207a60408201526265726f60e81b606082015260800190565b600060208284031215612b8e57600080fd5b5051919050565b600060208284031215612ba757600080fd5b8151801515811461043957600080fd5b60005b83811015612bd2578181015183820152602001612bba565b838111156111245750506000910152565b60006bffffffffffffffffffffffff19808a60601b168352808960601b166014840152508660288301528560488301528460688301528360888301528251612c328160a8850160208701612bb7565b9190910160a80198975050505050505050565b634e487b7160e01b600052603260045260246000fd5b634e487b7160e01b600052601160045260246000fd5b6000600019821415612c8557612c85612c5b565b5060010190565b60008151808452612ca4816020860160208601612bb7565b601f01601f19169290920160200192915050565b85815284602082015283604082015282606082015260a060808201526000610af360a0830184612c8c565b60008219821115612cf657612cf6612c5b565b500190565b600060208284031215612d0d57600080fd5b8151610439816125ee565b600082612d3557634e487b7160e01b600052601260045260246000fd5b500490565b600082821015612d4c57612d4c612c5b565b500390565b60608152600060018060a01b0380865116606084015280602087015116608084015250604085015160a0830152606085015160c0830152608085015160e083015260a085015161010083015260c085015160e0610120840152612db8610140840182612c8c565b90508281036020840152612dcc8186612c8c565b915050826040830152949350505050565b60008251612def818460208701612bb7565b9190910192915050565b60008351612e0b818460208801612bb7565b9190910191825250602001919050565b634e487b7160e01b600052602160045260246000fdfea2646970667358221220eda6dc8094b448759baad5d1a1f5a01c50c2978f51e51e2e9fbfaebbe39b798564736f6c63430008090033",
  "linkReferences": {},
  "deployedLinkReferences": {}
}